:020000040800F2
:1000000000500020251900087D2C0008552F0008FD
:10001000651900086519000865190008000000004E
:10002000000000000000000000000000053400088F
:10003000651900080000000001350008453500087A
:100040006519000865190008651900086519000898
:100050006519000865190008651900086519000888
:100060006519000865190008651900086519000878
:100070006519000865190008651900086519000868
:100080006519000865190008651900086519000858
:100090006519000865190008651900086519000848
:1000A0006519000865190008651900086519000838
:1000B0006519000865190008651900086519000828
:1000C0006519000865190008651900086519000818
:1000D00065190008611B000865190008651900080A
:1000E000651900086519000865190008000000007E
:1000F0000000000000000000000000000000000000
:0C01000000000000000000005FF808F1A3
:1001100010B5054C237833B9044B13B10448AFF341
:1001200000800123237010BD84080020000000001F
:100130000C010008084B10B51BB108480849AFF383
:1001400000800848036803B910BD074B002BFBD0A3
:10015000BDE81040184700BF000000000C01000877
:100160008808002084080020000000004FEA4102B7
:10017000B2F1E04324BFB3F5001CDCF1FE5C0DD905
:1001800001F0004C4FEAC0024CEA5070B2F1004F4F
:1001900040EB830008BF20F00100704711F0804F52
:1001A00021D113F13872BCBF01F00040704741F417
:1001B00080114FEA5252C2F11802C2F1200C10FA1B
:1001C0000CF320FA02F018BF40F001004FEAC123FF
:1001D0004FEAD32303FA0CFC40EA0C0023FA02F3A3
:1001E0004FEA4303CCE77FEA625307D150EA013379
:1001F0001EBF4FF0FE4040F44000704701F0004049
:1002000040F0FE4040F40000704700BF80F0004026
:1002100002E000BF81F0004142001FBF5FEA4103DE
:1002200092EA030F7FEA226C7FEA236C6AD04FEADE
:100230001262D2EB1363C1BFD21841404840414023
:10024000B8BF5B42192B88BF704710F0004F40F4D5
:10025000000020F07F4018BF404211F0004F41F4F1
:10026000000121F07F4118BF494292EA030F3FD0BD
:10027000A2F1010241FA03FC10EB0C00C3F12003D0
:1002800001FA03F100F0004302D5494260EB40005F
:10029000B0F5000F13D3B0F1807F06D340084FEACA
:1002A000310102F10102FE2A51D2B1F1004F40EBBF
:1002B000C25008BF20F0010040EA03007047490027
:1002C00040EB000010F4000FA2F10102EDD1B0FAF2
:1002D00080FCACF1080CB2EB0C0200FA0CF0AABFE7
:1002E00000EBC25052421843BCBFD0401843704785
:1002F00092F0000F81F4000106BF80F4000001328B
:10030000013BB5E74FEA41037FEA226C18BF7FEA61
:10031000236C21D092EA030F04D092F0000F08BFA3
:100320000846704790EA010F1CBF0020704712F08A
:100330007F4F04D1400028BF40F00040704712F1C9
:1003400000723CBF00F50000704700F0004343F02E
:10035000FE4040F4000070477FEA226216BF084664
:100360007FEA23630146420206BF5FEA412390EA27
:10037000010F40F4800070474FF0000304E000BF1D
:1003800010F0004348BF40425FEA000C08BF7047CE
:1003900043F0964301464FF000001CE050EA010292
:1003A00008BF70474FF000030AE000BF50EA0102A7
:1003B00008BF704711F0004302D5404261EB410194
:1003C0005FEA010C02BF84460146002043F0B643B9
:1003D00008BFA3F18053A3F50003BCFA8CF2083ADE
:1003E000A3EBC25310DB01FA02FC634400FA02FCE7
:1003F000C2F12002BCF1004F20FA02F243EB0200EE
:1004000008BF20F00100704702F1200201FA02FC4F
:10041000C2F1200250EA4C0021FA02F243EB020042
:1004200008BF20EADC7070474FF0FF0C1CEAD05286
:100430001EBF1CEAD15392EA0C0F93EA0C0F6FD047
:100440001A4480EA010C400218BF5FEA41211ED025
:100450004FF0006343EA501043EA5111A0FB013111
:100460000CF00040B1F5000F3EBF490041EAD371E6
:100470005B0040EA010062F17F02FD2A1DD8B3F162
:10048000004F40EBC25008BF20F00100704790F0D1
:10049000000F0CF0004C08BF49024CEA502040EA23
:1004A00051207F3AC2BFD2F1FF0340EAC2507047E9
:1004B00040F400004FF00003013A5DDC12F1190F27
:1004C000DCBF00F000407047C2F10002410021FA99
:1004D00002F1C2F1200200FA02FC5FEA310040F1B1
:1004E000000053EA4C0308BF20EADC70704792F02A
:1004F000000F00F0004C02BF400010F4000F013A62
:10050000F9D040EA0C0093F0000F01F0004C02BF5C
:10051000490011F4000F013BF9D041EA0C018FE7CB
:100520000CEAD15392EA0C0F18BF93EA0C0F0AD0D1
:1005300030F0004C18BF31F0004CD8D180EA0100F7
:1005400000F00040704790F0000F17BF90F0004F90
:10055000084691F0000F91F0004F14D092EA0C0F72
:1005600001D142020FD193EA0C0F03D14B0218BF05
:10057000084608D180EA010000F0004040F0FE404B
:1005800040F40000704740F0FE4040F440007047E7
:100590004FF0FF0C1CEAD0521EBF1CEAD15392EA66
:1005A0000C0F93EA0C0F69D0A2EB030280EA010C56
:1005B00049024FEA402037D04FF0805343EA1111EF
:1005C00043EA10130CF000408B4238BF5B0042F14D
:1005D0007D024FF4000C8B4224BF5B1A40EA0C00F2
:1005E000B3EB510F24BFA3EB510340EA5C00B3EB24
:1005F000910F24BFA3EB910340EA9C00B3EBD10F12
:1006000024BFA3EBD10340EADC001B0118BF5FEA63
:100610001C1CE0D1FD2A3FF650AF8B4240EBC2508C
:1006200008BF20F0010070470CF0004C4CEA50204D
:100630007F32C2BFD2F1FF0340EAC250704740F49C
:1006400000004FF00003013A37E792F0000F00F08E
:10065000004C02BF400010F4000F013AF9D040EA0C
:100660000C0093F0000F01F0004C02BF490011F4A0
:10067000000F013BF9D041EA0C0195E70CEAD15398
:1006800092EA0C0F08D142027FF47DAF93EA0C0F7F
:100690007FF470AF084676E793EA0C0F04D14B0263
:1006A0003FF44CAF08466EE730F0004C18BF31F015
:1006B000004CCAD130F000427FF45CAF31F000430F
:1006C0007FF43CAF5FE700BF4FF0FF3C06E000BFA8
:1006D0004FF0010C02E000BF4FF0010C4DF804CDCB
:1006E0004FEA40024FEA41037FEA226C18BF7FEADB
:1006F000236C11D001B052EA530C18BF90EA010FDD
:1007000058BFB2EB030088BFC81738BF6FEAE1706B
:1007100018BF40F0010070477FEA226C02D15FEA07
:10072000402C05D17FEA236CE4D15FEA412CE1D073
:100730005DF8040B704700BF844608466146FFE73A
:100740000FB5FFF7C9FF002848BF10F1000F0FBD1C
:100750004DF808EDFFF7F4FF0CBF012000205DF815
:1007600008FB00BF4DF808EDFFF7EAFF34BF01209A
:1007700000205DF808FB00BF4DF808EDFFF7E0FF33
:1007800094BF012000205DF808FB00BF4DF808ED84
:10079000FFF7D2FF94BF012000205DF808FB00BFE7
:1007A0004DF808EDFFF7C8FF34BF012000205DF8C9
:1007B00008FB00BF7BB972B90029BEBF00204FF013
:1007C000004106E008BF00281CBF6FF000414FF059
:1007D000FF3000F075B882B0EC462DE9005000F013
:1007E0003FF8DDF804E002B00CBC704710B5002102
:1007F0000446FFF7B7FF20B92046BDE8104000F0DF
:1008000009B804F1004000F005F8404261EB4101F5
:1008100010BD00BFD0B500F0B9F900220E4B06465E
:100820000F4600F007FA00F017FC044600F08CF9C0
:1008300000220A4B00F0FEF902460B4630463946CC
:1008400000F044F800F008FC2346002242EA0002CF
:1008500010461946D0BD00BF0000F03D0000F04139
:100860002DE9F041069C904606460F461D4600F0D5
:1008700013FC08FB01FCA8FB002300FB05C5B21A12
:100880002B4467EB03038646C4E90023BDE8F081EF
:100890002DE9F843089E1746804689461D4600F01C
:1008A00051FD00FB05F3A0FB074507FB0137B8EB43
:1008B00004043D4469EB0505C6E90045BDE8F8833D
:1008C000704700BF81F0004102E000BF83F00043A9
:1008D00030B54FEA41044FEA430594EA050F08BFDB
:1008E00090EA020F1FBF54EA000C55EA020C7FEA9F
:1008F000645C7FEA655C00F0E2804FEA5454D4EB1C
:100900005555B8BF6D420CDD2C4480EA020281EAE5
:10091000030382EA000083EA010180EA020281EA1D
:100920000303362D88BF30BD11F0004F4FEA01316F
:100930004FF4801C4CEA113102D0404261EB41017E
:1009400013F0004F4FEA03334CEA133302D0524204
:1009500063EB430394EA050F00F0A780A4F10104C0
:10096000D5F1200E0DDB02FA0EFC22FA05F28018FA
:1009700041F1000103FA0EF2801843FA05F35941E0
:100980000EE0A5F120050EF1200E012A03FA0EFC5F
:1009900028BF4CF0020C43FA05F3C01851EBE37189
:1009A00001F0004507D54FF0000EDCF1000C7EEBA6
:1009B00000006EEB0101B1F5801F1BD3B1F5001FE4
:1009C0000CD349085FEA30004FEA3C0C04F1010403
:1009D0004FEA445212F5800F80F09A80BCF1004F2C
:1009E00008BF5FEA500C50F1000041EB045141EAAE
:1009F000050130BD5FEA4C0C404141EB010111F4AF
:100A0000801FA4F10104E9D191F0000F04BF014659
:100A10000020B1FA81F308BF2033A3F10B03B3F137
:100A200020020CDA0C3208DD02F1140CC2F10C02C7
:100A300001FA0CF021FA02F10CE002F11402D8BF25
:100A4000C2F1200C01FA02F120FA0CFCDCBF41EAF1
:100A50000C019040E41AA2BF01EB0451294330BDC0
:100A60006FEA04041F3C1CDA0C340EDC04F114049D
:100A7000C4F1200220FA04F001FA02F340EA030074
:100A800021FA04F345EA030130BDC4F10C04C4F1BA
:100A9000200220FA02F001FA04F340EA030029469A
:100AA00030BD21FA04F0294630BD94F0000F83F4E4
:100AB000801306BF81F480110134013D4EE77FEAC7
:100AC000645C18BF7FEA655C29D094EA050F08BF13
:100AD00090EA020F05D054EA000C04BF19461046F4
:100AE00030BD91EA030F1EBF0021002030BD5FEA38
:100AF000545C05D14000494128BF41F0004130BD60
:100B000014F580043CBF01F5801130BD01F00045B3
:100B100045F0FE4141F470014FF0000030BD7FEA26
:100B2000645C1ABF194610467FEA655C1CBF0B4621
:100B3000024650EA013406BF52EA033591EA030F38
:100B400041F4002130BD00BF90F0000F04BF002130
:100B5000704730B54FF4806404F132044FF0000563
:100B60004FF0000150E700BF90F0000F04BF0021DC
:100B7000704730B54FF4806404F1320410F0004542
:100B800048BF40424FF000013EE700BF42004FEA3D
:100B9000E2014FEA31014FEA02701FBF12F07F43BA
:100BA00093F07F4F81F06051704792F0000F14BFB7
:100BB00093F07F4F704730B54FF4607401F00045FB
:100BC00021F0004120E700BF50EA010208BF704752
:100BD00030B54FF000050AE050EA010208BF704747
:100BE00030B511F0004502D5404261EB41014FF4B0
:100BF000806404F132045FEA915C3FF4DCAE4FF0B4
:100C000003025FEADC0C18BF03325FEADC0C18BF9A
:100C1000033202EBDC02C2F1200300FA03FC20FAEB
:100C200002F001FA03FE40EA0E0021FA02F1144438
:100C3000C1E600BF70B54FF0FF0C4CF4E06C1CEA4D
:100C400011541DBF1CEA135594EA0C0F95EA0C0FC2
:100C500000F0DEF82C4481EA030621EA4C5123EA35
:100C60004C5350EA013518BF52EA033541F4801164
:100C700043F4801338D0A0FB02CE4FF00005E1FB17
:100C800002E506F00042E0FB03E54FF00006E1FB61
:100C900003569CF0000F18BF4EF0010EA4F1FF04A4
:100CA000B6F5007F64F5407404D25FEA4E0E6D41E4
:100CB00046EB060642EAC62141EA55514FEAC520F5
:100CC00040EA5E504FEACE2EB4F1FD0C88BFBCF571
:100CD000E06F1ED8BEF1004F08BF5FEA500E50F122
:100CE000000041EB045170BD06F0004646EA0101E8
:100CF00040EA020081EA0301B4EB5C04C2BFD4EB1A
:100D00000C0541EA045170BD41F480114FF0000E12
:100D1000013C00F3AB8014F1360FDEBF002001F080
:100D2000004170BDC4F10004203C35DA0C341BDCFA
:100D300004F11404C4F1200500FA05F320FA04F0CC
:100D400001FA05F240EA020001F0004221F0004100
:100D500010EBD37021FA04F642EB06015EEA430E73
:100D600008BF20EAD37070BDC4F10C04C4F12005A3
:100D700000FA04F320FA05F001FA04F240EA020056
:100D800001F0004110EBD37041F100015EEA430E27
:100D900008BF20EAD37070BDC4F1200500FA05F247
:100DA0004EEA020E20FA04F301FA05F243EA0203C6
:100DB00021FA04F001F0004121FA04F220EA0200D5
:100DC00000EBD3705EEA430E08BF20EAD37070BD1B
:100DD00094F0000F0FD101F00046400041EB0101FB
:100DE00011F4801F08BF013CF7D041EA060195F0DD
:100DF000000F18BF704703F00046520043EB030397
:100E000013F4801F08BF013DF7D043EA0603704783
:100E100094EA0C0F0CEA135518BF95EA0C0F0CD08E
:100E200050EA410618BF52EA4306D1D181EA0301D4
:100E300001F000414FF0000070BD50EA410606BFCE
:100E40001046194652EA430619D094EA0C0F02D113
:100E500050EA013613D195EA0C0F05D152EA033658
:100E60001CBF104619460AD181EA030101F0004176
:100E700041F0FE4141F470014FF0000070BD41F0BF
:100E8000FE4141F4780170BD70B54FF0FF0C4CF499
:100E9000E06C1CEA11541DBF1CEA135594EA0C0FB8
:100EA00095EA0C0F00F0A7F8A4EB050481EA030E05
:100EB00052EA03354FEA013100F088804FEA0333EC
:100EC0004FF0805545EA131343EA12634FEA0222BA
:100ED00045EA111545EA10654FEA00260EF000417B
:100EE0009D4208BF964244F1FD0404F5407402D2CD
:100EF0005B084FEA3202B61A65EB03055B084FEA5E
:100F000032024FF480104FF4002CB6EB020E75EB5A
:100F1000030E22BFB61A754640EA0C005B084FEA82
:100F20003202B6EB020E75EB030E22BFB61A7546FF
:100F300040EA5C005B084FEA3202B6EB020E75EB4A
:100F4000030E22BFB61A754640EA9C005B084FEAC2
:100F50003202B6EB020E75EB030E22BFB61A7546CF
:100F600040EADC0055EA060E18D04FEA051545EABE
:100F700016754FEA06164FEAC30343EA52734FEA67
:100F8000C2025FEA1C1CC0D111F4801F0BD141EAE0
:100F900000014FF000004FF0004CB6E711F4801F45
:100FA00004BF01430020B4F1FD0C88BFBCF5E06F25
:100FB0003FF6AFAEB5EB030C04BFB6EB020C5FEA35
:100FC000500C50F1000041EB045170BD0EF0004E8A
:100FD0004EEA113114EB5C04C2BFD4EB0C0541EABC
:100FE000045170BD41F480114FF0000E013C90E6B9
:100FF00045EA060E8DE60CEA135594EA0C0F08BF7D
:1010000095EA0C0F3FF43BAF94EA0C0F0AD150EA7B
:1010100001347FF434AF95EA0C0F7FF425AF10460E
:1010200019462CE795EA0C0F06D152EA03353FF436
:10103000FDAE1046194622E750EA410618BF52EAB3
:1010400043067FF4C5AE50EA41047FF40DAF52EA87
:1010500043057FF4EBAE12E74A0011D212F50012FD
:1010600011D20DD56FF47873B3EB62520ED44FEA00
:10107000C12343F0004343EA505323FA02F0704780
:101080004FF00000704750EA013002D14FF0FF30BE
:1010900070474FF00000704700292DE9F043C0F27F
:1010A000A8800026002BC0F29E8081468E46904686
:1010B0009C46174604460D46002B3DD18A4259D91D
:1010C000B2FA82F33BB1C3F120029D4020FA02F252
:1010D0009F4015439C40390CB5FBF1F01FFA87FE89
:1010E00001FB10550EFB00F3220C42EA0545AB4212
:1010F00009D9ED1900F1FF3280F00B81AB4240F2CB
:10110000088102383D44ED1AB5FBF1F301FB13559C
:101110000EFB03FEA4B244EA0545AE4508D9ED191D
:1011200003F1FF3280F0F780AE4540F2F480023BDD
:1011300043EA0043002203E08B420FD9002213460A
:10114000341C18BF012460424FF0000565EB4501D7
:101150005840514000196941BDE8F083B3FA83F269
:10116000002A40F089808B4202D3804500F2E28061
:101170000123E5E712B90123B3FBF2F7B7FA87F8C9
:10118000B8F1000F3BD1ED1B4FEA174C1FFA87FE59
:101190000122B5FBFCF00CFB10550EFB00F3210CFB
:1011A00041EA0545AB4207D9ED1900F1FF3102D202
:1011B000AB4200F2C3800846ED1AB5FBFCF30CFB12
:1011C00013550EFB03FEA4B244EA0545AE4507D90C
:1011D000ED1903F1FF3102D2AE4500F2AD800B46AE
:1011E00043EA0043ACE752426FEA060663EB43036F
:1011F0005BE7404261EB41014FF0FF3652E707FAEF
:1012000008F7C8F1200225FA02F34FEA174CB3FBA6
:10121000FCF11FFA87FE0CFB113324FA02F205FAE7
:1012200008F50EFB01F92A43100C40EA03439945E7
:1012300004FA08F407D9DB1901F1FF3078D2994597
:1012400076D902393B44C9EB0303B3FBFCF00CFB3A
:1012500010330EFB00F592B242EA03439D4207D9D8
:10126000DB1900F1FF325FD29D425DD902383B4469
:101270005D1B40EA01428CE7C2F1200328FA03F12A
:101280000CFA02FC41EA0C0C4FEA1C402EFA03F166
:10129000B1FBF0F51FFA8CF700FB151129FA03F3E7
:1012A0000EFA02FE07FB05F943EA0E0E4FEA1E4353
:1012B00043EA0141894508FA02F808D911EB0C010B
:1012C00005F1FF3332D2894530D9023D6144C9EB83
:1012D0000101B1FBF0F300FB131107FB03F71FFA49
:1012E0008EFE4EEA014E774508D91EEB0C0E03F137
:1012F000FF3117D2774515D9023BE64443EA05434F
:10130000A3FB0889C7EB0E0ECE4509D305D00022FA
:1013100016E71046F7E613460AE794404445F6D22E
:10132000013BF4E70B46E9E71046A1E71D46CEE78F
:10133000014688E7134603E7023B51E702383D4484
:101340003AE700BF2DE9F043002B44D18A4215460D
:1013500004464FD9B2FA82F70E464FB1C7F12003C7
:10136000B94020FA03F602FA07F50E4300FA07F433
:101370002F0CB6FBF7F01FFA85FE07FB10620EFB81
:1013800000F1260C46EA0243994209D95B1900F1A3
:10139000FF3280F0EE80994240F2EB8002382B441D
:1013A000591AB1FBF7F307FB13110EFB03FEA4B2AE
:1013B00044EA01418E4508D9491903F1FF3280F012
:1013C000DA808E4540F2D780023B43EA0040002697
:1013D0003146BDE8F0838B4247D8B3FA83F6002E3E
:1013E00048D18B4202D3824200F2CF8001203146A5
:1013F000BDE8F08312B90125B5FBF2F5B5FA85FC1D
:10140000BCF1000F78D1491B2F0C1FFA85FE012675
:10141000B1FBF7F007FB10110EFB00F2230C43EABF
:1014200001418A4207D9491900F1FF3302D28A42A9
:1014300000F2BC801846891AB1FBF7F307FB1311C1
:101440000EFB03FEA4B244EA0142964508D95219A4
:1014500003F1FF3180F09180964540F28E80023B8F
:1014600043EA00403146BDE8F0830026304631466D
:10147000BDE8F083C6F1200422FA04F5B3402B4303
:1014800021FA04F74FEA1348B7FBF8FC1FFA83F977
:1014900008FB1C7720FA04FE01FA06F509FB0CF4A0
:1014A0004EEA05054FEA154E4EEA0747BC4202FADE
:1014B00006F204D9FF180CF1FF3168D38C463F1BAC
:1014C000B7FBF8F408FB147709FB04F9ADB245EA61
:1014D0000741894504D9C91804F1FF355DD32C466D
:1014E00044EA0C44A4FB0223C9EB0101994249D30D
:1014F00045D0204600266BE7CCF1200405FA0CF518
:1015000021FA04F32A0CB3FBF2F61FFA85FE02FB64
:10151000163820FA04F701FA0CF10EFB06F90F4316
:101520003C0C44EA0843994500FA0CF407D95B19CE
:1015300006F1FF3138D2994536D9023E2B44C9EB2A
:101540000303B3FBF2F002FB10330EFB00F1BFB25A
:1015500047EA0343994207D95B1900F1FF3721D2CB
:1015600099421FD902382B441746591A40EA0646B9
:101570004EE7104614E7134627E70B4670E7B040E6
:101580009042B6D2601E002622E7304620E7BC42D9
:1015900094D9ACF1020C1F4491E789459FD9023CD4
:1015A00019449DE73846DFE70E46C8E7023829446C
:1015B00041E700BF844641EA000313F0030349D129
:1015C000403A23D30B6803604B6843608B688360A9
:1015D000CB68C3600B6903614B6943618B698361AD
:1015E000CB69C3610B6A03624B6A43628B6A836295
:1015F000CB6AC3620B6B03634B6B43638B6B83637D
:10160000CB6BC36340304031403ADBD230320BD336
:101610000B6803604B6843608B688360CB68C36072
:1016200010301031103AF3D20C3205D351F8043B8C
:1016300040F8043B043AF9D2043208D0D2071CBF68
:1016400011F8013B00F8013B01D30B880380604691
:10165000704700BF082A13D38B07B1D010F00303E3
:10166000AED0C3F10403D21ADB071CBF11F8013B53
:1016700000F8013BA4D331F8023B20F8023B9FE77E
:10168000043AD9D3013A11F8013B00F8013BF9D2F1
:101690000B7803704B7843708B788370604670478B
:1016A0004FF0FF3C06E000BF4FF0010C02E000BF2E
:1016B0004FF0010C4DF804CD4FEA410C7FEA6C5C11
:1016C0004FEA430C18BF7FEA6C5C1BD001B050EAB4
:1016D000410C0CBF52EA430C91EA030F02BF90EA9F
:1016E000020F0020704710F1000F91EA030F58BF5E
:1016F000994208BF90422CBFD8176FEAE37040F0C0
:10170000010070474FEA410C7FEA6C5C02D150EA5D
:10171000013C07D14FEA430C7FEA6C5CD6D152EA18
:10172000033CD3D05DF8040B704700BF84461046DD
:1017300062468C461946634600E000BF01B5FFF7DC
:10174000B7FF002848BF10F1000F01BD4DF808EDAC
:10175000FFF7F4FF0CBF012000205DF808FB00BF7D
:101760004DF808EDFFF7EAFF34BF012000205DF8D7
:1017700008FB00BF4DF808EDFFF7E0FF94BF012024
:1017800000205DF808FB00BF4DF808EDFFF7CEFF25
:1017900094BF012000205DF808FB00BF4DF808ED64
:1017A000FFF7C4FF34BF012000205DF808FB00BF35
:1017B0004FEA410212F5001215D211D56FF4787379
:1017C000B3EB625212D94FEAC12343F0004343EA1C
:1017D000505311F0004F23FA02F018BF40427047F7
:1017E0004FF00000704750EA013005D111F0004081
:1017F00008BF6FF0004070474FF00000704700BF17
:1018000080B584B000AF7860154B1B68002B02D107
:10181000134B144A1A60124B1B68FB6003F054F818
:101820000346BB600E4B1A687B681A44BB689A4239
:101830000AD902200C49192200F01AF80B4B0C228D
:101840001A604FF0FF3306E0054B1A687B681344BB
:10185000034A1360FB6818461037BD4680BD00BFC1
:10186000A00800206C4E002094780008684E0020EC
:1018700080B487B000AFF860B9607A60FB68012B74
:1018800002D0022B1ED03BE000237B6115E000BF9D
:10189000224B1B889BB203F04003002BF8D01F495A
:1018A000BB685A1CBA601B785BB29BB2C3F30803D7
:1018B0009BB28B807B6901337B617A697B689A423A
:1018C000E5DB23E000237B6115E000BF134B1B88A1
:1018D0009BB203F04003002BF8D01049BB685A1CA0
:1018E000BA601B785BB29BB2C3F308039BB28B80D8
:1018F0007B6901337B617A697B689A42E5DB05E0AD
:10190000074B09221A604FF0FF3300E07B6818464E
:101910001C37BD465DF8047B704700BF00440040A3
:10192000684E0020002103E0094B5B58435004310E
:101930000848094B42189A42F6D3084A02E00023AD
:1019400042F8043B064B9A42F9D301F0A5F97047DF
:101950001C7D00080000002084080020840800206E
:101960006C4E0020FEE7000080B483B000AF034659
:10197000FB71084997F907305B09FA7902F01F02F9
:10198000012000FA02F241F823200C37BD465DF831
:10199000047B704700E100E080B483B000AF0346F1
:1019A0003960FB7197F90730002B0BDA0D49FB7991
:1019B00003F00F03043B3A68D2B21201D2B20B44D7
:1019C0001A7609E0084997F907303A68D2B212014D
:1019D000D2B20B4483F800230C37BD465DF8047B7C
:1019E000704700BF00ED00E000E100E080B483B08C
:1019F00000AF03463960FB80314A314B9B6943F0AD
:101A0000040393612F4A2F4B5B6823F0400353601C
:101A10002C4A2C4B5B6843F080035360294A294BC6
:101A20005B6843F030035360264A264B5B6823F41F
:101A300000635360234A234B5B6843F48063536025
:101A4000204A204B5B6823F4407353601C4A1C4BB4
:101A50009B6943F4804393611B49FB883A68B2FB5E
:101A6000F3F39BB20B81184A174B9B899BB243F44B
:101A700000539BB29381144A134B9B899BB223F46E
:101A800080539BB29381104A0F4B9B899BB223F4E6
:101A900080639BB293810C4A0B4B9B899BB243F0B2
:101AA0000C039BB29381084A074B1B8A9BB223F419
:101AB00040539BB213820C37BD465DF8047B7047E0
:101AC00000100240000801400038014080B483B09B
:101AD00000AF0346FB7100BF074B1B889BB203F0AE
:101AE0008003002BF8D0044BFA7992B29A800C371D
:101AF000BD465DF8047B70470038014080B500AFFB
:101B00000B4A0B4B9B899BB243F020039BB2938102
:101B1000074A074B9B899BB243F040039BB29381DA
:101B20002520FFF721FF25200F21FFF735FF80BD7E
:101B30000038014080B400AF084B1B889BB203F013
:101B40002003002B04D0054B9B889BB2DBB200E046
:101B500000231846BD465DF8047B704700380140FD
:101B600090B583B000AF1E4B1B889BB203F02003DF
:101B7000002B23D01B4B00221A60FFF7DBFF03462C
:101B8000FB71194B1A68174B1B681C46FB1D10464E
:101B900019462246002301F04FFE0246134B1A60FD
:101BA000124B1B68012B03D01148002100F09AF85A
:101BB0000C4B1B68012B01D101F062FC084B1B8808
:101BC0009BB203F04003002B07D0054A044B1B884F
:101BD0009BB223F040039BB213800C37BD4690BDEF
:101BE00000380140A4080020F84D0020A80800207B
:101BF000B078000880B584B000AF7860154B1B68E2
:101C0000184600214FF0FF32002301F059FE034631
:101C1000012B1BD10EE0104B1B681846796864221B
:101C2000002301F07DFDF860FB68012B02D17B6889
:101C300001337B607B681B78002BECD1054B1B6864
:101C4000184600210022002301F06AFD1037BD462E
:101C500080BD00BFF44D0020FC4D002080B582B057
:101C600000AF0346FB71104B1B68184600214FF074
:101C7000FF32002301F024FE0346012B10D10B4B51
:101C80001A68FB1D104619466422002301F048FD26
:101C9000054B1B68184600210022002301F040FD7F
:101CA0000837BD4680BD00BFF44D0020FC4D00202C
:101CB00080B584B000AF7860094B1A6807F10B0358
:101CC000104619464FF0FF32002301F0F9FDF8608D
:101CD000FB68012B03D1FB7A1846FFF7F7FEEBE711
:101CE000FC4D002080B582B000AF78600B46FB70E1
:101CF000FB787868194600F00BF8FB780348194622
:101D000000F006F80837BD4680BD00BFD478000853
:101D100080B582B000AF78600B46FB70FB78022B79
:101D200002D87868FFF766FF0837BD4680BD00BF60
:101D300080B485B000AF786039600123FB6004E0B7
:101D4000FB687A6802FB03F3FB603B685A1E3A604B
:101D5000002BF5DCFB6818461437BD465DF8047BA4
:101D6000704700BF90B591B000AF786039604FF018
:101D7000FF324FF0FF33C7E9042378684FF00001CA
:101D8000FEF7F0FC0346002B09D04FF02D024FF078
:101D90000003C7E904237B6883F000437B607B6812
:101DA000FB607868FEF722FD02460B46C7E9082370
:101DB0004FF000024FF00003C7E90E234FF000027E
:101DC0004FF00003C7E90C231EE03B6B01330A20F0
:101DD0001946FFF7ADFF03461846FEF7D1FA034652
:101DE00018467968FEF720FB0346FB60F868FEF7AB
:101DF000FDFC02460B46C7E90823D7E90C23013254
:101E000043F10003C7E90C23D7E90801FEF7CEFA36
:101E10000346F8681946FEF7FDF9034618464FF0E9
:101E20000001FEF795FC0346002B1CD1D7E9080101
:101E3000FEF7BCFA0346F8681946FEF7EBF90346CD
:101E40001A4601231C4610464FF00001FEF78AFC9B
:101E50000346002B01D100231C46E3B283F00103AB
:101E6000DBB2002BB1D101231C4678684FF07E51C4
:101E7000FEF78CFC0346002B01D100231C46E3B285
:101E800083F00103DBB21A464FEAE273C7E90E237F
:101E90000CE078685349FEF77BFB03467B60D7E98B
:101EA0000E23013243F10003C7E90E2378684FF097
:101EB0007E51FEF76BFC0346002BEAD1D7E90E23D7
:101EC000C7E90623D7E90C23012A73F100030BDBD2
:101ED000D7E90E23501C43F10001D7E90C23121857
:101EE00043EB0103C7E90E23F868FEF77FFC0246C7
:101EF0000B46C7E90823D7E90423002B08BF2D2A86
:101F00000DD1D7E90E23013243F10003C7E90E23B7
:101F1000D7E90623013243F10003C7E90623D7E9D5
:101F20000E23C7E90A2353E0D7E90A01D7E90E23B4
:101F3000994208BF904205D1BB6A3A681344002217
:101F40001A703DE0D7E90A01D7E90623994208BF94
:101F5000904205D1BB6A3A6813442E221A702FE0D2
:101F6000D7E90423002B08BF2D2A09D1D7E90A237A
:101F7000134305D1BB6A3A6813442D221A701FE03F
:101F8000BB6A3A68D418D7E90823104619464FF0BF
:101F90000A024FF00003FEF70DFCD3B23033DBB280
:101FA000DBB22370D7E90823104619464FF00A0226
:101FB0004FF00003FEF7FEFB02460B46C7E908237D
:101FC000D7E90A2312F1FF3243F1FF33C7E90A23AD
:101FD000D7E90A23002A73F10003A5DA4437BD4686
:101FE00090BD00BF0000204180B582B000AF786096
:101FF0000848012102F0EEFE4FF47A7001F0BCFEB9
:102000000448012102F0F4FE4FF47A7001F0B4FEAE
:10201000EEE700BF000C014080B400AF0C4A0C4B4F
:102020009B6943F0080393610A4A0A4B5B6823F0FB
:10203000CC2323F44C035360064A064B5B6843F001
:10204000332343F44C135360BD465DF8047B704763
:1020500000100240000C014080B487B000AF7860EF
:102060007A6813465B001344DB007B610023FB604E
:1020700000233B6105E0FB680133FB603B690133F2
:102080003B613A697B699A42F5D31C37BD465DF8DE
:10209000047B704780B582B000AF78600A4A0A4B73
:1020A000DB6843F40063D3607868FFF7D5FF064A26
:1020B000054BDB6823F40063D3607868FFF7CCFF3F
:1020C0000837BD4680BD00BF000C014080B483B01E
:1020D00000AF0346FB71FB795BB2002B06DA244AA2
:1020E000234BDB6843F40043D36005E0204A204BD8
:1020F000DB6823F40043D360FB7903F04003002B3B
:1021000006D01B4A1A4BDB6843F48043D36005E0DA
:10211000174A174BDB6823F48043D360FB7903F045
:102120002003002B06D0124A114BDB6843F4005306
:10213000D36005E00E4A0E4BDB6823F40053D360F6
:10214000FB7903F01003002B06D0094A084BDB682B
:1021500043F48053D36005E0054A054BDB6823F464
:102160008053D3600C37BD465DF8047B704700BFD9
:10217000000C014080B483B000AF0346FB71FB79D3
:1021800003F00803002B06D0234A234BDB6843F4FB
:102190000043D36005E0204A1F4BDB6823F4004373
:1021A000D360FB7903F00403002B06D01A4A1A4BC4
:1021B000DB6843F48043D36005E0174A164BDB68C5
:1021C00023F48043D360FB7903F00203002B06D095
:1021D000114A114BDB6843F40053D36005E00E4A0B
:1021E0000D4BDB6823F40053D360FB7903F001034C
:1021F000002B06D0084A084BDB6843F48053D360B9
:1022000005E0054A044BDB6823F48053D3600C37A8
:10221000BD465DF8047B7047000C014080B582B07C
:1022200000AF0346FB71FB791846FFF74FFF142000
:10223000FFF730FFFB791846FFF79CFF1420FFF7EC
:1022400029FF0837BD4680BD80B500AF0120FFF7EC
:10225000E5FFC820FFF700FF014B00221A7080BD88
:10226000AC08002080B582B000AF03460A46FB717F
:102270001346BB71FB79022B0BD0052B11D0012B20
:1022800017D1BB7963F07F03DBB21846FFF7C6FFB7
:102290000FE0BB7963F03F03DBB21846FFF7BEFFE8
:1022A00007E0BB7943F04003DBB21846FFF7B6FF07
:1022B00000BF0837BD4680BD80B582B000AF034681
:1022C000FB71094A084BDB6843F48063D360FB79F8
:1022D0001846FFF7A3FF044A034BDB6823F480632F
:1022E000D3600837BD4680BD000C014080B582B088
:1022F00000AF0346FB71FB791846FFF7E7FE0920A4
:10230000FFF7C8FE0920FFF7C5FEFB791846FFF767
:1023100031FF2820FFF7BEFE0837BD4680BD00BF55
:1023200080B500AF43F69820FFF796FEFFF774FEE6
:102330003020FFF773FF3020FFF770FF3020FFF7EA
:102340006DFF3020FFF76AFF3020FFF767FF2C207A
:10235000FFF7CCFF0C20FFF761FF0620FFF75EFFC1
:102360000120FFF75BFF0220FFF758FF80BD00BF91
:1023700080B584B000AF78600023FB730123BB738A
:102380002E4BBB602E4B1B78012B55D12D4B1B6860
:10239000184600214FF0FF32002301F091FA034666
:1023A000012B46D139E0FB7B202B0AD1FFF74CFFF4
:1023B0000023FB730123BB73BB7B18460021FFF78F
:1023C00051FFFB7B102B0AD1BB7B012B07D1BB7BC1
:1023D0000133BB73BB7B18460021FFF743FFBB688B
:1023E0001B780A2B0ED1FB7B102B13D0BB7B012B50
:1023F00010D1BB7B0133BB73BB7B18460021FFF7B9
:1024000031FF07E0BB681B781846FFF755FFFB7BE1
:102410000133FB73BB680133BB60BB681B78002BC7
:10242000C1D1084B1B68184600210022002301F08F
:1024300077F9034B00221A70A2E700BF084E002074
:10244000044E0020484E002080B582B000AF034605
:102450003A60FB710B46BB71194B01221A70194B84
:102460001B68184600214FF0FF32002301F028FAC4
:102470000346012B1ED1BB79012B07D1FB79103309
:10248000114A13441846396800F058F8BB79002BFC
:1024900006D1FB790C4A13441846396800F04EF80F
:1024A000084B1B68184600210022002301F038F970
:1024B000012300E0002318460837BD4680BD00BF59
:1024C000044E0020484E0020084E002080B582B007
:1024D00000AF174B01221A70164B1B6818460021DB
:1024E0004FF0FF32002301F0EBF90346012B1AD124
:1024F0000023FB7106E0FB790F4A2021D154FB79C0
:102500000133FB71FB791F2BF5D90B4B002283F8AC
:102510002020084B1B68184600210022002301F0F0
:10252000FFF8012300E0002318460837BD4680BDB0
:10253000044E0020484E0020084E002080B483B096
:1025400000AF7860396009E03B681A787B681A70E0
:102550003B6801333B607B6801337B603B681B78E1
:10256000002BF1D10C37BD465DF8047B704700BFEE
:1025700080B400AF044B054A5A60034B044A5A60CA
:10258000BD465DF8047B704700200240230167458B
:10259000AB89EFCD80B400AF044A044B1B6943F014
:1025A00080031361BD465DF8047B70470020024044
:1025B00080B400AF064BDB6803F00103002B0CBFB7
:1025C00001230023DBB21846BD465DF8047B70474B
:1025D0000020024080B582B000AF7860FFF7C8FFEE
:1025E0000F4A0F4B1B6943F0020313610C4A7B68CF
:1025F00053610B4A0A4B1B6943F04003136100BF50
:10260000FFF7D6FF0346002BFAD0054A044B1B699F
:1026100023F002031361FFF7BDFF0837BD4680BDFD
:102620000020024080B588B000AFF860B9607A60E1
:102630000023FB837B6803F57C437B610023BB6144
:1026400053E0BB685A1EBB699A4212D1BB6803F0C3
:102650000103002B0DD0FF23FB83FB8B1B02FB83AD
:10266000FA68BB6913441B789AB2FB8B1343FB8354
:1026700010E0BB690133FA6813441B78FB83FB8BC2
:102680001B02FB83FA68BB6913441B789AB2FB8B6D
:102690001343FB83FFF76CFF174A174B1B6943F08B
:1026A0000103136100BFFFF783FF0346002BFAD03D
:1026B0007B69FA8B1A8000BFFFF77AFF0346002B75
:1026C000FAD00D4A0C4B1B6923F0010313610A4A2F
:1026D000094B1B6923F002031361FFF75BFF7B6962
:1026E00002337B61BB690233BB61BA69BB689A4242
:1026F000A7D32037BD4680BD0020024080B487B0FC
:1027000000AFF860B9607A607B6803F57C433B6199
:1027100000237B610BE0FA687B69134439697A69AD
:102720000A441268D2B21A707B6901337B617A69FC
:10273000BB689A42EFD31C37BD465DF8047B7047F7
:1027400080B584B004AF05201821002200F072FF8C
:102750000246144B1A60134B1B68002B03D112481E
:102760000021FFF7BFFA01230093104B01930023D0
:102770000293002303930E480E498022002301F0A8
:102780005FFA012300930C4B019300230293002373
:1027900003930A480A498022002301F051FABD46FA
:1027A00080BD00BF604E0020D87800085C4E00203D
:1027B000FD280008FC780008644E0020B12A0008BB
:1027C0001079000880B500AF054B1B68184601F072
:1027D000FBFA044B1B68184601F0F6FA80BD00BFF7
:1027E000644E00205C4E002080B500AF054B1B6896
:1027F000184601F069FB044B1B68184601F064FBA6
:1028000080BD00BF644E00205C4E002080B584B0C7
:1028100000AF786007F10803184600F011F807F1DF
:10282000080318467968082202F0A0FD0346002B31
:1028300001D0002300E0012318461037BD4680BDBB
:1028400080B582B000AF7860786808210022FFF779
:1028500055FF0837BD4680BD80B582B000AF7860B7
:102860004FF47C40FFF7B6FE786808210022FFF79E
:10287000D9FE0837BD4680BD80B584B000AF074B98
:102880003B60074BBB60074B7B60074BFB603B46E5
:10289000184600F017F81037BD4680BD6666E63E64
:1028A0000000F8423333333F0060814480B582B08A
:1028B00000AF7860786810210822FFF71FFF083703
:1028C000BD4680BD80B584B000AF786007F10803D5
:1028D0001846FFF7B5FF4FF47C40FFF77BFE07F18A
:1028E0000803184608210022FFF79CFE7868102193
:1028F0000822FFF797FE1037BD4680BD80B58EB029
:1029000000AF786001233B63002387F83730654BC5
:102910001A6807F12F03104619464FF0FF320023C3
:1029200000F0CEFF0346012B40F0BA8097F82F301D
:102930001846FFF793F997F83730052BE7D801A22F
:1029400052F823F05D290008752900088D29000838
:10295000A5290008BD290008132A0008002387F8CC
:10296000363097F82F30432B03D1012387F83730C7
:1029700096E095E097F82F304D2B03D1022387F88E
:1029800037308DE0002387F8373089E097F82F3013
:10299000442B03D1032387F8373081E0002387F8E5
:1029A00037307DE097F82F305F2B03D1042387F871
:1029B000373075E0002387F8373071E097F82F3013
:1029C0003D2B1ED097F83630132B21D897F8363090
:1029D00097F82F2007F138010B4403F82C2C97F8B7
:1029E0003630013387F8363097F83630132B0FD84E
:1029F00097F8363007F138021344002203F82C2CE4
:102A00004EE0052387F83730002387F8363047E05B
:102A100046E097F82F300D2B16D097F8363097F800
:102A20002F2007F138010B4403F8142C97F83630A7
:102A3000013387F8363097F8363007F138021344FF
:102A4000002203F8142C2BE007F12403184602F0AF
:102A5000FBF902460B4610461946FDF787FB034675
:102A60003B62114B1A6807F10C03104619464FF0F0
:102A7000FF32002300F054FE38633B6B012B03D080
:102A80000A480021FFF72EF9FFF720FD07F10C039C
:102A9000002000211A46FFF7D7FC002387F83730C3
:102AA00035E700BFF84D0020604E00202479000873
:102AB00080B58CB000AF78600123FB624FF000035B
:102AC000BB62264B1A6807F11003104619460A220A
:102AD000002300F0F5FEF862FB6A012B3CD1204890
:102AE0000221FFF715F907F1100318460221FFF73D
:102AF0000FF91C480221FFF70BF97A6A07F1080366
:102B000010461946FFF72EF907F10803184602216F
:102B1000FFF7E8F807F1100318461349062202F000
:102B200025FC0346002B06D17B6A104A136010482F
:102B30000221FFF7D7F807F1100318460D490522C7
:102B400002F014FC0346002B06D10848FFF7BAFE3A
:102B500007480221FFF7C6F8B3E700BF604E002028
:102B60004079000844790008487900084C4E00205C
:102B7000507900085479000880B483B000AF002376
:102B80007B6000233B603B4A3A4B1B6843F4803335
:102B90001360384B1B6803F400333B607B680133E0
:102BA0007B603B68002B03D17B68B3F5A06FF0D14D
:102BB000304B1B6803F40033002B02D001233B6031
:102BC00001E000233B603B68012B4BD12A4A2A4B92
:102BD0001B6843F010031360274A274B1B6823F040
:102BE00003031360244A244B1B6843F00203136061
:102BF000204A204B5B6853601E4A1E4B5B68536043
:102C00001C4A1C4B5B6843F480635360194A194BA0
:102C10005B6823F47C135360164A164B5B6843F4DD
:102C200088135360134A134B1B6843F0807313607F
:102C300000BF104B1B6803F00073002BF9D00D4A46
:102C40000C4B5B6823F0030353600A4A094B5B6833
:102C500043F00203536000BF064B5B6803F00C03B4
:102C6000082BF9D13B6818460C37BD465DF8047B4C
:102C7000704700BF001002400020024080B400AF47
:102C8000044A044B9B6843F400039360BD465DF81F
:102C9000047B70470010024080B584B004AFFFF79A
:102CA0006BFF00F06BF900F099F900F07FF9FFF786
:102CB00037FB4FF416501549FEF798FEFEF71EFF3E
:102CC000012000F0EFFC0246114B1A600123009333
:102CD0000023019300230293002303930D480E4920
:102CE0008022002300F0ACFF012300930023019316
:102CF00000230293002303930848094980220023FC
:102D000000F09EFF01F028F9FEE700BF00A24A0490
:102D1000484E0020252D00085C790008712300082A
:102D20006879000880B588B004AF7860384B1B78AC
:102D3000012B69D0022B69D0002B68D1FFF784FAF0
:102D400000200021334AFFF77FFB0123009300237B
:102D5000019300230293002303932F482F498022DD
:102D6000002300F06DFF0123009300230193002353
:102D70000293002303932A482A498022002300F06B
:102D80005FFF20200121002200F054FC0246264B68
:102D90001A60012000F086FC0246244B1A600123D1
:102DA0000093002301930023029300230393204800
:102DB00020498022002300F043FF2020012100222F
:102DC00000F038FC02461C4B1A601B4B1B68002BA2
:102DD00003D11A480021FEF785FF19480121FEF7AB
:102DE00097FF07F108031846FFF72AFD07F10803CC
:102DF00018460121FEF776FFFFF7A2FCFFF7E2FC81
:102E0000034B01221A7002E000BF8FE700BF8DE77D
:102E1000AD08002070790008E91F000894790008C7
:102E2000452E00089C790008FC4D0020F44D002040
:102E3000B11C0008A8790008F84D0020BC790008F2
:102E4000DC79000880B584B000AF786000237B7324
:102E50000023FB730023BB7334484FF4807101F0EF
:102E60009FFF03467B737A7BFB7B9A425CD07B7B24
:102E7000FB737B7B002B57D1BB7B002B49D1FFF72A
:102E8000B3FC2B480121FEF72DFFFFF71FFB0020AD
:102E90000021284AFFF7D8FA2748FFF7B7FC034676
:102EA000002B08D12448FFF7D7FCFFF7E5FC2348A7
:102EB0000221FEF717FF2248FFF7F8FC2148012105
:102EC000FEF710FF20480121FEF722FF1C4B1A6875
:102ED00007F1080310461946FEF744FF07F10803FF
:102EE00018460121FEF7FEFE18480121FEF710FFEB
:102EF000134B9A6807F1080310461946FEF732FF94
:102F000007F1080318460121FEF7ECFE0123BB730D
:102F10000AE0FFF7DBFA002000210D4AFFF794FAE0
:102F2000FFF750FC0023BB7396E700BF000C014085
:102F3000F4790008147A0008247A00082C7A000832
:102F40004C4E0020387A00084C7A0008547A000869
:102F50005C7A000880B500AF0248022101F03AFF18
:102F600080BD00BF000C014080B483B000AF0023DF
:102F7000FB710C37BD465DF8047B704780B582B0AD
:102F800000AF0820012101F041FF0323BB80102383
:102F9000FB710323BB713B1D0348194601F040FE42
:102FA0000837BD4680BD00BF000C014080B582B02F
:102FB00000AF0820012101F029FF4FF48073BB808E
:102FC0004823FB710323BB713B1D0348194601F0E5
:102FD00027FE0837BD4680BD000C014080B586B095
:102FE00000AF4FF40070012101F010FF3B1D1846A7
:102FF00001F0C4FC00237B6000233B7200237B7242
:103000004FF46023FB6000233B6101233B753B1DB4
:103010001248194601F060FC1048012101F0CAFC79
:103020000E4801210122052301F030FD0B4801F07B
:10303000DDFC00BF094801F0E9FC0346002BF9D193
:10304000064801F0FBFC00BF044801F007FD034601
:10305000002BF9D11837BD4680BD00BF00240140C8
:1030600080B588B000AF786000237B6100F09EFFE0
:103070003E4B1B68002B04D100F0B8F83B4B0122FB
:103080001A607B68002B0ED008231A467B68134415
:103090007B607B6803F00703002B04D07B6823F080
:1030A000070308337B607B68002B57D07B6844F2B2
:1030B000F732934252D82E4BBB612D4B1B68FB61FC
:1030C00004E0FB69BB61FB691B68FB61FB695A6833
:1030D0007B689A4203D2FB691B68002BF1D1FB6924
:1030E000244A93423AD0BB691B68082213447B618F
:1030F000FB691A68BB691A60FB695A687B68D31A56
:1031000008225200934222D9FA697B681344FB607B
:10311000FB695A687B68D21AFB685A60FB697A6857
:103120005A60FB685B68BB60114B3B6102E03B6926
:103130001B683B613B691B685A68BB689A42F6D3BF
:103140003B691A68FB681A603B69FA681A600A4BA7
:103150001A68FB695B68D31A074A136000F034FFF2
:103160007B6918462037BD4680BD00BFC04C00209B
:10317000B04C0020B84C00200000002080B586B084
:1031800000AF78607B683B617B68002B27D0082309
:103190005B423A6913443B613B69FB6000F006FF08
:1031A000FB685B68BB600F4B7B6102E07B691B685F
:1031B0007B617B691B685A68BB689A42F6D37B695E
:1031C0001A68FB681A607B69FA681A60FB685A68BB
:1031D000054B1B681344044A136000F0F5FE1837D2
:1031E000BD4680BDB04C00200000002080B483B0FC
:1031F00000AF0F4B23F007037B600E4A7B68136020
:103200000C4B00225A600C4B44F2F8325A600A4BC5
:1032100000221A607B683B603B6844F2F8325A60D7
:103220003B68054A1A600C37BD465DF8047B704761
:10323000B8080020B04C0020B84C002080B483B007
:1032400000AF78607B6803F108027B685A607B6896
:103250004FF0FF329A607B6803F108027B68DA6006
:103260007B6803F108027B681A617B6800221A60A0
:103270000C37BD465DF8047B704700BF80B483B057
:1032800000AF78607B6800221A610C37BD465DF89C
:10329000047B704780B485B000AF786039607B688C
:1032A0005B68FB603B68FA685A60FB689A683B6839
:1032B0009A60FB689B683A685A60FB683A689A6053
:1032C0003B687A681A617B681B685A1C7B681A60C5
:1032D0001437BD465DF8047B704700BF80B485B0ED
:1032E00000AF786039603B681B68BB60BB68B3F1B6
:1032F000FF3F03D17B681B69FB600CE07B680833F0
:10330000FB6002E0FB685B68FB60FB685B681A6857
:10331000BB689A42F6D9FB685A683B685A603B68BA
:103320005B683A689A603B68FA689A60FB683A683A
:103330005A603B687A681A617B681B685A1C7B6814
:103340001A601437BD465DF8047B704780B485B0C1
:1033500000AF78607B681B69FB607B685B687A689C
:1033600092689A607B689B687A6852685A60FB68CA
:103370005A687B689A4203D17B689A68FB685A60F6
:103380007B6800221A61FB681B685A1EFB681A6082
:10339000FB681B6818461437BD465DF8047B704710
:1033A00080B485B000AFF860B9607A60FB68043B18
:1033B000FB60FB684FF080721A60FB68043BFB60A7
:1033C000BA68FB681A60FB68043BFB60094AFB684B
:1033D0001A60FB68143BFB607A68FB681A60FB6844
:1033E000203BFB60FB6818461437BD465DF8047B44
:1033F000704700BFF933000880B500AF00F072F8E5
:10340000FEE700BF074B19680868B0E8F00F80F3CB
:103410000988BFF36F8F4FF0000080F311884EF0E2
:103420000D0E7047C44C002005480068006880F30A
:10343000088862B6BFF34F8FBFF36F8F00DF00BF06
:1034400008ED00E080B500AF0B4A0B4B1B6843F45E
:103450007F031360084A084B1B6843F07F431360E7
:1034600000F084F8054B00221A60FFF7DDFFFFF73C
:10347000C3FF0023184680BD20ED00E004000020BB
:1034800080B400AF054B4FF080521A60BFF34F8FEE
:10349000BFF36F8FBD465DF8047B704704ED00E01D
:1034A00080B500AF00F01EF8044B1B680133034ADF
:1034B0001360BFF34F8FBFF36F8F80BD04000020F8
:1034C00080B500AF064B1B68013B054A1360044BF7
:1034D0001B68002B02D1002000F00EF880BD00BF59
:1034E00004000020EFF311804FF0BF0181F3118839
:1034F00070470023184600BF80F31188704700BF53
:10350000EFF30980BFF36F8F0D4B1A6820E9F00FBE
:1035100010602DE908404FF0BF0080F3118800F0E3
:1035200089FE4FF0000080F31188BDE8084019685B
:103530000868B0E8F00F80F30988BFF36F8F704719
:10354000C44C002080B500AFFFF7CCFF00F0BAFDFF
:103550000346002B03D0044B4FF080521A6000202A
:10356000FFF7CAFF80BD00BF04ED00E080B400AFEC
:10357000044B054A1A60054B07221A60BD465DF8E8
:10358000047B704714E000E03F19010010E000E008
:1035900080B584B000AF786039607B68FB60FFF76E
:1035A0007FFFFB681A68FB68DB6BF968096C01FB3D
:1035B00003F31A44FB685A60FB6800229A63FB68B5
:1035C0001A68FB689A60FB681A68FB68DB6B013B52
:1035D000F968096C01FB03F31A44FB68DA60FB68C5
:1035E0004FF0FF325A64FB684FF0FF329A643B6839
:1035F000002B0ED1FB681B69002B14D0FB68103325
:10360000184600F093FE0346012B0CD1FFF738FF5C
:1036100009E0FB6810331846FFF710FEFB682433FF
:103620001846FFF70BFEFFF74BFF01231846103734
:10363000BD4680BD80B588B000AFF860B960134664
:10364000FB710023FB61FB68002B26D04C20FFF7A9
:1036500007FDB861BB69002B1FD0FB68BA6802FB8D
:1036600003F301337B617869FFF7FAFC0246BB691B
:103670001A60BB691B68002B0CD0BB69FA68DA635F
:10368000BB69BA681A64B8690121FFF781FFBB6999
:10369000FB6102E0B869FFF771FDFB69184620374E
:1036A000BD4680BD80B584B000AF0346FB714C20A1
:1036B000FFF7D6FCF860FB68002B2CD0FB680022DB
:1036C0005A60FB6800221A60FB6800229A60FB685F
:1036D0000022DA60FB6800229A63FB680122DA6349
:1036E000FB6800221A64FB684FF0FF325A64FB68E3
:1036F0004FF0FF329A64FB6810331846FFF79EFDC7
:10370000FB6824331846FFF799FDF8680021002272
:10371000002300F005F8FB6818461037BD4680BD51
:1037200080B588B000AFF860B9607A603B60002374
:10373000FB61FB68BB61FFF7B3FEBB699A6BBB69BA
:10374000DB6B9A4202D33B68022B16D1B869B96889
:103750003A6800F06DF9BB695B6A002B09D0BB6960
:103760002433184600F0E2FD0346012B01D1FFF798
:1037700087FEFFF7A5FE012359E07B68002B03D1EC
:10378000FFF79EFE002352E0FB69002B06D107F1F4
:103790001003184600F020FE0123FB61FFF790FEA6
:1037A00000F004FCFFF77CFEBB695B6CB3F1FF3FEC
:1037B00002D1BB6900225A64BB699B6CB3F1FF3F25
:1037C00002D1BB6900229A64FFF77AFE07F110026A
:1037D0003B1D1046194600F015FE0346002B1ED176
:1037E000B86900F015FA0346002B12D0BB6903F14B
:1037F00010027B681046194600F068FDB86900F0B9
:10380000A5F900F0E1FB0346002B0FD1FFF738FECE
:103810000CE0B86900F09AF900F0D6FB8BE7B869C4
:1038200000F094F900F0D0FB002300E083E7184695
:103830002037BD4680BD00BF80B588B000AFF860BE
:10384000B9607A603B60FB68BB61FFF74BFE786153
:10385000BB699A6BBB69DB6B9A4202D33B68022B54
:1038600024D1B869B9683A6800F0E2F8BB699B6C8A
:10387000B3F1FF3F12D1BB695B6A002B13D0BB6968
:103880002433184600F052FD0346002B0BD07B6812
:10389000002B08D07B6801221A6004E0BB699B6C96
:1038A0005A1CBB699A640123FB6101E00023FB61A0
:1038B0007869FFF721FEFB6918462037BD4680BDB9
:1038C00080B58AB000AFF860B9607A603B600023D1
:1038D0007B62FB683B62FFF7E3FD3B6A9B6B002B5F
:1038E0003BD03B6ADB68FB61386AB96800F008F9D5
:1038F0003B68002B1CD13B6A9B6B5A1E3B6A9A6348
:103900003B6A1B68002B04D100F02EFF02463B6A85
:103910005A603B6A1B69002B1BD03B6A1033184668
:1039200000F004FD0346012B13D1FFF7A9FD10E0C1
:103930003B6AFA69DA603B6A5B6A002B09D03B6A32
:103940002433184600F0F2FC0346002B01D0FFF7A9
:1039500097FDFFF7B5FD012366E07B68002B03D1DF
:10396000FFF7AEFD00235FE07B6A002B06D107F175
:103970001403184600F030FD01237B62FFF7A0FD21
:1039800000F014FBFFF78CFD3B6A5B6CB3F1FF3F6B
:1039900002D13B6A00225A643B6A9B6CB3F1FF3F41
:1039A00002D13B6A00229A64FFF78AFD07F11402F4
:1039B0003B1D1046194600F025FD0346002B2BD178
:1039C000386A00F00FF90346002B1FD03B6A1B68D2
:1039D000002B08D1FFF764FD3B6A5B68184600F0D6
:1039E000D3FEFFF76DFD3B6A03F124027B681046AE
:1039F000194600F06BFC386A00F0A8F800F0E4FA11
:103A00000346002B0FD1FFF73BFD0CE0386A00F0B6
:103A10009DF800F0D9FA5EE7386A00F097F800F0F8
:103A2000D3FA002300E056E718462837BD4680BD8C
:103A300080B584B000AFF860B9607A60FB681B6C39
:103A4000002B0CD1FB681B68002B51D1FB685B6815
:103A5000184600F0F7FEFB6800225A6048E07B68D9
:103A6000002B1AD1FB689A68FB681B6C1046B9687A
:103A70001A46FDF79FFDFB689A68FB681B6C1A44A9
:103A8000FB689A60FB689A68FB685B689A422FD370
:103A9000FB681A68FB689A602AE0FB68DA68FB68D2
:103AA0001B6C1046B9681A46FDF784FDFB68DA689E
:103AB000FB681B6C5B421A44FB68DA60FB68DA68DF
:103AC000FB681B689A4207D2FB685A68FB681B6C4C
:103AD0005B421A44FB68DA607B68022B08D1FB6802
:103AE0009B6B002B04D0FB689B6B5A1EFB689A6390
:103AF000FB689B6B5A1CFB689A631037BD4680BD00
:103B000080B582B000AF786039607B681B68002B9D
:103B100019D07B68DA687B681B6C1A447B68DA60B2
:103B20007B68DA687B685B689A4203D37B681A68B3
:103B30007B68DA607B68DA687B681B6C38681146E2
:103B40001A46FDF737FD0837BD4680BD80B582B007
:103B500000AF7860FFF7A4FC14E07B685B6A002B81
:103B60000AD07B682433184600F0E0FB0346002BA4
:103B700003D000F08BFC00E008E07B689B6C5A1ED1
:103B80007B689A647B689B6C002BE6DC7B684FF05B
:103B9000FF329A64FFF794FCFFF782FC14E07B6825
:103BA0001B69002B0FD07B681033184600F0BEFB5A
:103BB0000346002B01D000F069FC7B685B6C5A1E49
:103BC0007B685A6400E003E07B685B6C002BE6DCFA
:103BD0007B684FF0FF325A64FFF772FC0837BD462E
:103BE00080BD00BF80B584B000AF7860FFF758FC9F
:103BF0007B689B6B002B02D10123FB6001E000235B
:103C0000FB60FFF75DFCFB6818461037BD4680BDC2
:103C100080B584B000AF7860FFF742FC7B689A6B98
:103C20007B68DB6B9A4202D10123FB6001E0002339
:103C3000FB60FFF745FCFB6818461037BD4680BDAA
:103C400080B58AB002AFF860B9603B601346FB8074
:103C5000FB881846396B00F02BFDB861BB69002B5F
:103C600066D0BB691A6BFB8803F18043013B9B0064
:103C700013447B617B6923F007037B61FB8800931E
:103C8000B869B968BA6A7B6B00F01CFC7869F9689E
:103C90003A68FFF785FB0246BB691A60FB6A002B96
:103CA00002D0FB6ABA691A60FFF7FAFB2C4B1B685B
:103CB00001332B4A13602B4B1B68002B09D1294A77
:103CC000BB691360264B1B68012B0FD100F042FC2F
:103CD0000CE0254B1B68002B08D1224B1B68DA6ACD
:103CE000BB6A9A4202D81F4ABB6913601F4B1B680C
:103CF00001331E4A1360BB69DA6A1D4B1B689A4286
:103D000003D9BB69DB6A1A4A1360BB69DA6A1346D6
:103D10009B0013449B00174A1A44BB6904331046A6
:103D20001946FFF7B7FA0123FB61FFF7C9FB02E071
:103D30004FF0FF33FB61FB69012B0BD10A4B1B6872
:103D4000002B07D0074B1B68DA6ABB6A9A4201D284
:103D5000FFF796FBFB6918462037BD4680BD00BFC4
:103D60009C4D0020C44C0020A84D0020B84D0020E0
:103D7000A44D0020C84C002080B584B000AF78600E
:103D80000023FB607B68002B12D000F00FF90C4B76
:103D90001A687B681344BB600A4B1B6804331846DF
:103DA000FFF7D4FAB86800F04DFC00F00DF9F860A8
:103DB000FB68002B01D1FFF763FB1037BD4680BDC8
:103DC000A04D0020C44C002080B584B000AF7860C6
:103DD000FFF766FB7B68002B02D1204B1B6800E0DD
:103DE0007B68FB60FB6804331846FFF7AFFAFB689B
:103DF0009B6A002B04D0FB6818331846FFF7A6FA1D
:103E0000FB68043316481946FFF744FAFFF758FBDE
:103E1000124B1B68FA689A4213D1124B1B68002B95
:103E200002D0FFF72DFB16E00D4B1A680E4B1B68F6
:103E30009A4203D1094B00221A600CE000F0FAF913
:103E400009E0084B1B68002B05D0FFF729FB00F0A9
:103E500067FCFFF735FB1037BD4680BDC44C002022
:103E6000884D0020A84D00209C4D002080B485B0D6
:103E700000AF78600023FB607B68BB60BB685B6958
:103E80000F4A934201D1012300E00023002B0FD001
:103E9000BB689B6A0B4A93420AD0BB689B6A002BA3
:103EA00001D1012300E00023002B01D00123FB609E
:103EB000FB6818461437BD465DF8047B704700BFA9
:103EC000884D00205C4D002080B584B000AF786044
:103ED0007B68FB60FB68002B34D01C4B1B68FA68C6
:103EE0009A422FD0FFF7DCFAF868FFF7BFFF0346CE
:103EF000012B25D1FB6804331846FFF727FAFB682E
:103F0000DA6A134B1B689A4203D9FB68DB6A104AD2
:103F10001360FB68DA6A13469B0013449B000D4A4A
:103F20001A44FB68043310461946FFF7B3F9FB68DF
:103F3000DA6A064B1B68DB6A9A4201D3FFF7A0FAE4
:103F4000FFF7BEFA1037BD4680BD00BFC44C00204D
:103F5000A44D0020C84C002080B586B004AF0023DB
:103F600000930023019300230293002303930B4843
:103F70000B4980220023FFF763FE78607B68012BEA
:103F800009D1FFF7AFFA074B01221A60064B002256
:103F90001A60FFF757FA0837BD4680BDA5440008F0
:103FA0006C7A0008A84D0020A04D002080B400AF1E
:103FB000044B1B680133034A1360BD465DF8047B64
:103FC000704700BFBC4D002080B582B000AF002319
:103FD0007B60FFF765FA334B1B68013B314A136086
:103FE000304B1B68002B56D12F4B1B68002B52D037
:103FF0002FE02E4BDB68DB683B603B6818331846CC
:10400000FFF7A4F93B6804331846FFF79FF93B68B4
:10401000DA6A274B1B689A4203D93B68DB6A244A59
:1040200013603B68DA6A13469B0013449B00214AE5
:104030001A443B68043310461946FFF72BF93B68D6
:10404000DA6A1D4B1B68DB6A9A4202D31B4B0122C2
:104050001A60164B1B68002BCBD1194B1B68002B29
:1040600011D00CE000F02EF80346002B02D0134BC9
:1040700001221A60124B1B68013B114A1360104B5E
:104080001B68002BEED10D4B1B68012B03D10123C4
:104090007B60FFF7F5F9FFF713FA7B6818460837DE
:1040A000BD4680BDBC4D00209C4D00205C4D0020D5
:1040B000A44D0020C84C0020C44C0020B04D00206E
:1040C000AC4D002080B586B000AF00237B614E4B25
:1040D0001B68002B40F085804C4B1B6801334B4A1A
:1040E00013604A4B1B683B613B69002B10D1484B66
:1040F0001B68FB60474B1B68454A1360454AFB68D9
:104100001360454B1B680133434A136000F008FB02
:10411000424B1B683A699A424ED33D4B1B681B6861
:10412000002B01D1012300E00023002B04D03B4BE6
:104130004FF0FF321A603FE0354B1B68DB68DB68ED
:10414000BB60BB685B687B603A697B689A4203D25C
:10415000324A7B6813602FE0BB6804331846FFF7D0
:10416000F5F8BB689B6A002B04D0BB68183318466F
:10417000FFF7ECF8BB68DA6A294B1B689A4203D94F
:10418000BB68DB6A264A1360BB68DA6A13469B0089
:1041900013449B00234A1A44BB6804331046194653
:1041A000FFF778F8BB68DA6A1F4B1B68DB6A9A4234
:1041B00001D301237B61B0E71B4B1B68DA6A194905
:1041C00013469B0013449B000B441B68012B01D931
:1041D00001237B61154B1B68002B09D1FEF7C4FE40
:1041E00006E0124B1B680133104A1360FEF7BCFE59
:1041F0000F4B1B68002B01D001237B617B691846A4
:104200001837BD4680BD00BFBC4D0020A04D00202A
:10421000544D0020584D0020B44D002008000020CF
:10422000A44D0020C84C0020C44C0020AC4D002000
:10423000B04D002080B483B000AF1F4B1B68002B33
:1042400003D01E4B01221A6031E01C4B00221A6081
:1042500004E01B4B1B68013B194A1360184B1A689A
:10426000184913469B0013449B000B441B68002B0A
:10427000EFD0134B1A6813469B0013449B00114A5E
:1042800013447B607B685B685A687B685A607B6814
:104290005A687B6808339A4204D17B685B685A6825
:1042A0007B685A607B685B68DB68074A13600C3781
:1042B000BD465DF8047B7047BC4D0020B04D00202A
:1042C000A44D0020C84C0020C44C002080B584B010
:1042D00000AF78603960124B1B6818337868194654
:1042E000FEF7FCFF0E4B1B6804331846FFF72EF851
:1042F0003B68B3F1FF3F07D1094B1B680433094802
:104300001946FEF7C7FF07E0074B1A683B681344DE
:10431000FB60F86800F096F91037BD4680BD00BF1D
:10432000C44C0020884D0020A04D002080B584B0F2
:1043300000AF78607B68DB68DB68BB60BB68183304
:104340001846FFF703F81E4B1B68002B1DD1BB68F6
:1043500004331846FEF7FAFFBB68DA6A194B1B688C
:104360009A4203D9BB68DB6A164A1360BB68DA6AF3
:1043700013469B0013449B00134A1A44BB68043342
:1043800010461946FEF786FF05E0BB6818330F4854
:104390001946FEF77FFFBB68DA6A0D4B1B68DB6AC4
:1043A0009A4205D90123FB600A4B01221A6001E001
:1043B0000023FB60FB6818461037BD4680BD00BF78
:1043C000BC4D0020A44D0020C84C00205C4D0020B6
:1043D000C44C0020B04D002080B483B000AF7860A2
:1043E000064B1A687B681A60054B1A687B685A602E
:1043F0000C37BD465DF8047B704700BFB44D00200C
:10440000A04D002080B584B000AF78603960FFF720
:1044100047F81C4B1B68BB603B681B68B3F1FF3F50
:1044200002D10023FB6026E07B681A68164B1B68EC
:104430009A4207D07B685A68BB689A4202D8012327
:10444000FB6018E07B685B68BA68D21A3B681B683F
:104450009A420ED23B681A687B685968BB68CB1ACF
:104460001A443B681A607868FFF7B6FF0023FB60C8
:1044700001E00123FB60FFF723F8FB6818461037C3
:10448000BD4680BDA04D0020B44D002080B400AFDB
:10449000034B01221A60BD465DF8047B704700BFE4
:1044A000B04D002080B582B000AF786000F090F889
:1044B000034B1B68012B01D9FEF7E2FFF6E700BFB3
:1044C000C84C002080B586B000AFF860B9607A6053
:1044D0003B6000237B6113E0BA687B691344197861
:1044E000FA687B69134430330A461A71BA687B69EB
:1044F00013441B78002B00D105E07B6901337B61FD
:104500007B690F2BE8D9FB68002283F843207B6886
:10451000042B01D904237B60FB687A68DA62FB68AC
:104520007A685A64FB6804331846FEF7A7FEFB68F6
:1045300018331846FEF7A2FEFB68FA681A617B681A
:10454000C3F10502FB689A61FB68FA685A62183782
:10455000BD4680BD80B582B000AF00237B600CE01B
:104560007A6813469B0013449B00114A1344184673
:10457000FEF764FE7B6801337B607B68042BEFD918
:104580000C48FEF75BFE0C48FEF758FE0B48FEF7A2
:1045900055FE0B48FEF752FE0A48FEF74FFE0A4B47
:1045A000044A1A60094B044A1A600837BD4680BDA8
:1045B000C84C00202C4D0020404D00205C4D0020B8
:1045C000704D0020884D0020544D0020584D002093
:1045D00080B582B000AF28E0FFF7E8FC164B1B68FF
:1045E000002B0CBF01230023DBB27B60FFF7ECFC48
:1045F0007B68002B19D1FEF753FF0F4BDB68DB689C
:104600003B603B6804331846FEF7A0FE0B4B1B686B
:10461000013B0A4A13600A4B1B68013B084A1360BE
:10462000FEF74EFF386800F06BF8054B1B68002B57
:10463000D2D10837BD4680BD704D00209C4D002072
:10464000844D002080B582B000AF7860134B1B68AA
:104650007A685A60124B1B687A689A4209D2114BE9
:104660001A680E4B1B68043310461946FEF736FED7
:1046700010E00D4B1A68094B1B68043310461946AD
:10468000FEF72CFE094B1B687A689A4202D2074A51
:104690007B6813600837BD4680BD00BFC44C002056
:1046A000A04D0020584D0020544D0020080000204F
:1046B00080B584B000AF03463960FB804820FEF728
:1046C000CFFCF860FB68002B15D03B68002B06D1AF
:1046D000FB889B001846FEF7C3FC034600E03B68DE
:1046E000FA681363FB681B6B002B04D1F868FEF7B4
:1046F00045FD0023FB60FB6818461037BD4680BDB2
:1047000080B582B000AF78607B681B6B1846FEF7FF
:1047100035FD7868FEF732FD0837BD4680BD00BF25
:1047200080B483B000AF0E4B1B681B68002B01D117
:10473000012300E00023002B04D00A4B4FF0FF328E
:104740001A6008E0064B1B68DB68DB687B607B68EF
:104750005B68044A13600C37BD465DF8047B704704
:10476000544D00200800002080B483B000AF054BFA
:104770001B687B607B6818460C37BD465DF8047B80
:10478000704700BFC44C002080B584B000AF786093
:104790007B68FB607B68002B4AD0FB68DA6A264B9B
:1047A0001B68DB6A9A4243D2FB689B69002B06DBDD
:1047B000214B1B68DB6AC3F10502FB689A61FB6849
:1047C0005969FB68DA6A13469B0013449B001B4A35
:1047D0001344994201D1012300E00023002B22D091
:1047E000FB6804331846FEF7B1FD134B1B68DA6A09
:1047F000FB68DA62FB68DA6A114B1B689A4203D9DC
:10480000FB68DB6A0E4A1360FB68DA6A13469B009A
:1048100013449B00094A1A44FB68043310461946A6
:10482000FEF738FD04E0044B1B68DA6AFB68DA62C5
:104830001037BD4680BD00BFC44C0020C84C0020CE
:10484000A44D002080B584B000AF78607B68FB6029
:104850007B68002B30D0FB68DA6AFB685B6C9A429D
:104860002AD0FB6804331846FEF770FDFB685A6CCB
:10487000FB68DA62FB689B69002B05DBFB68DB6A7F
:10488000C3F10502FB689A61FB68DA6A0C4B1B688E
:104890009A4203D9FB68DB6A094A1360FB68DA6A4B
:1048A00013469B0013449B00064A1A44FB680433DA
:1048B00010461946FEF7EEFC1037BD4680BD00BF1E
:1048C000A44D0020C84C00200024EFF308831846B4
:1048D00070471C462346184680B485B000AF786008
:1048E00039600023FB600023FB727B685B68FB6020
:1048F000FB6823F4702323F48073FB603B681A6821
:104900003B681B791B021343FA681343FB607B6807
:10491000FA685A607B689B68FB60FA68164B134024
:10492000FB603B68DA683B689B681A433B685B79CD
:104930005B001343FA681343FB607B68FA689A6074
:104940007B68DB6AFB60FB6823F47003FB603B68F9
:104950001B7C013BDAB2FB7A1343FB72FB7A1B052B
:10496000FA681343FB607B68FA68DA621437BD4665
:104970005DF8047B704700BFFDF7F1FF80B483B0A2
:1049800000AF78607B6800221A607B6800221A7191
:104990007B6800225A717B6800229A607B68002243
:1049A000DA607B6801221A740C37BD465DF8047B1F
:1049B000704700BF80B483B000AF78600B46FB70D7
:1049C000FB78002B06D07B689B6843F001027B6874
:1049D0009A6005E07B689B6823F001027B689A601F
:1049E0000C37BD465DF8047B704700BF80B483B0D0
:1049F00000AF78607B689B6843F008027B689A6030
:104A00000C37BD465DF8047B704700BF80B485B0AD
:104A100000AF78600023FB737B689B6803F008039A
:104A2000002B02D00123FB7301E00023FB73FB7B0F
:104A300018461437BD465DF8047B704780B483B0D8
:104A400000AF78607B689B6843F004027B689A60E3
:104A50000C37BD465DF8047B704700BF80B485B05D
:104A600000AF78600023FB737B689B6803F004034E
:104A7000002B02D00123FB7301E00023FB73FB7BBF
:104A800018461437BD465DF8047B704780B485B086
:104A900000AF7860084611461A460346FB700B4685
:104AA000BB7013467B700023FB600023BB60FB7868
:104AB000092B23D97B68DB68FB60FB78A3F10A0232
:104AC00013465B001344072202FA03F3BB60BB6882
:104AD000DB43FA681340FB607978FB78A3F10A02A4
:104AE00013465B00134401FA03F3BB60FA68BB682A
:104AF0001343FB607B68FA68DA601EE07B681B6921
:104B0000FB60FA7813465B001344072202FA03F3B2
:104B1000BB60BB68DB43FA681340FB607978FA78C6
:104B200013465B00134401FA03F3BB60FA68BB68E9
:104B30001343FB607B68FA681A61BB78062B21D8A7
:104B40007B685B6BFB60BB785A1E13469B0013446B
:104B50001F2202FA03F3BB60BB68DB43FA68134011
:104B6000FB60F978BB785A1E13469B00134401FA88
:104B700003F3BB60FA68BB681343FB607B68FA68A9
:104B80005A6347E0BB780C2B21D87B681B6BFB601A
:104B9000BB78DA1F13469B0013441F2202FA03F36B
:104BA000BB60BB68DB43FA681340FB60F978BB78F5
:104BB000DA1F13469B00134401FA03F3BB60FA6843
:104BC000BB681343FB607B68FA681A6322E07B686A
:104BD000DB6AFB60BB78A3F10D0213469B00134414
:104BE0001F2202FA03F3BB60BB68DB43FA68134081
:104BF000FB60F978BB78A3F10D0213469B001344C8
:104C000001FA03F3BB60FA68BB681343FB607B687F
:104C1000FA68DA621437BD465DF8047B704700BF5E
:104C200080B489B000AF786039600023FB61002355
:104C30003B610023BB610023FB6000237B610023F9
:104C4000BB603B68DB7803F00F03FB613B68DB78FC
:104C500003F01003002B05D03B689B781A46FB69D4
:104C60001343FB613B681B88DBB2002B44D07B689D
:104C70001B687B610023BB6138E0BB69012202FA3B
:104C800003F3FB603B681B881A46FB6813403B61DB
:104C90003A69FB689A4226D1BB699B00FB60FB68BE
:104CA0000F2202FA03F3BB60BB68DB437A6913404F
:104CB0007B61FB68FA6902FA03F37A6913437B614B
:104CC0003B68DB78282B05D1BB6901229A407B68C1
:104CD0005A6108E03B68DB78482B04D1BB690122AC
:104CE0009A407B681A61BB690133BB61BB69072BC2
:104CF000C3D97B687A691A603B681B88FF2B4AD945
:104D00007B685B687B610023BB613EE0BB69083365
:104D10001A4601239340FB603B681B881A46FB68D8
:104D200013403B613A69FB689A422BD1BB699B00F7
:104D3000FB60FB680F2202FA03F3BB60BB68DB4336
:104D40007A6913407B61FB68FA6902FA03F37A69B6
:104D500013437B613B68DB78282B07D1BB690833A1
:104D60001A46012303FA02F27B685A613B68DB783A
:104D7000482B07D1BB6908331A46012303FA02F214
:104D80007B681A61BB690133BB61BB69072BBDD965
:104D90007B687A695A602437BD465DF8047B7047AA
:104DA00080B485B000AF78600B467B800023FB7336
:104DB0007B689A687B881340002B02D00123FB7329
:104DC00001E00023FB73FB7B18461437BD465DF8FA
:104DD000047B704780B483B000AF78600B467B8063
:104DE0007A887B681A610C37BD465DF8047B704792
:104DF00080B483B000AF78600B467B807A887B6894
:104E00005A610C37BD465DF8047B704780B483B0AF
:104E100000AF78600B46FB70FB78002B06D0094989
:104E2000084B9A697B6813438B6106E00549054B83
:104E30009A697B68DB4313408B610C37BD465DF894
:104E4000047B704700100240002101F00DBB00BF41
:104E5000024B0146186800F003B800BF3804002078
:104E60002DE9F04F01F10B05162D83B0064627D929
:104E700035F0070500F1B680A94200F2B38000F0DA
:104E8000F5FAB5F5FC7F22D2BC4FE80807EBC0036A
:104E9000DC689C4200F0BC816368E16823F0030396
:104EA00023445A68A56842F00102E96030468D60EB
:104EB0005A6000F0DDFA0834204603B0BDE8F08FF8
:104EC000102900F28F8000F0D1FA1025DCE7680A83
:104ED00000F08F80042800F24781A8093830410093
:104EE000A64F07EB8101CC68A14206D10CE0002A55
:104EF00080F28280E468A14206D0636823F0030355
:104F00005A1B0F2AF3DD013801309C493C6901F13D
:104F1000080E744500F07181636823F003035A1B87
:104F20000F2A00F35781002AC1F814E0C1F810E0FD
:104F300066DAB3F5007F80F02D81DB0801EBC30852
:104F40004FEAA30C4A68012303FA0CF3D8F808C00F
:104F50001343C4F808C0C4F80C804B60C8F808407C
:104F6000CCF80C408210012494409C4255D8234236
:104F700006D120F003006400234200F10400FAD0BF
:104F800007EBC008C4468146DCF80C309C4507D1CD
:104F900035E1002980F24581DB689C4500F02F81D6
:104FA0005A6822F00302511B0F29F2DD1C46DA6811
:104FB00054F808CF45F0010941F001081D44C3F839
:104FC00004903046CCF80C20C2F808C07D613D61E9
:104FD000C5F80CE0C5F808E0C5F80480695000F099
:104FE00047FA69E7002420460C23336003B0BDE88C
:104FF000F08F7E213F2073E723445A68E16851E730
:1050000023445A68304642F001025A60083400F0E6
:105010002FFA204603B0BDE8F08FBC68636823F028
:105020000308454504D8C5EB08030F2B00F38C801B
:10503000534BDFF85CA11A68DAF800302A440133D8
:1050400004EB080B00F0518102F580520F3222F47C
:105050007F6222F00F0211463046019200F00AFAF8
:10506000B0F1FF3F8146019A00F04881834500F28C
:10507000EF80444BCB4519681144196000F043811F
:10508000DAF80000DFF808E101301BBFCBEB090BB9
:105090005944CEF80090196019F0070100F008811A
:1050A000C1F10800C1F58051814408314A44C2F37E
:1050B0000B02C2EB010A51463046019300F0DAF9C7
:1050C000431C019B00F02D81C9EB0002524442F0C9
:1050D00001021968BC425144C7F808901960C9F828
:1050E0000420DFF8A0A016D0B8F10F0F40F2EF8037
:1050F0006268A8F10C0323F0070302F00102E01834
:105100004FF0050E1A430F2B6260C0F804E0C0F8A0
:1051100008E000F20A811C4BBC681A68914288BF03
:1051200019601A4B1A689142626888BF196022F0B0
:1051300003029542A2EB050301D80F2B04DC304695
:1051400000F096F90024B7E645F0010243F00103B0
:10515000254462603046BD6008346B6000F088F919
:10516000204603B0BDE8F08F142869D9542800F216
:105170009880280B6E304100B2E600BF3C0400204E
:10518000C84D0020CC4D0020C44D0020C04D002053
:10519000480800205A0A042A55D9142A00F2A78088
:1051A0005B324FEA420C07EB8C0CDCF80810DFF89E
:1051B000B88161457FD04A6822F00302934202D24F
:1051C00089688C45F7D1CA687B68E260A160946009
:1051D000CC60C7E645F0010742F001032544676053
:1051E00030464D610D61C5F80CE0C5F808E06B6014
:1051F000AA50083400F03CF95EE64B68B2E609F1CB
:10520000010919F0030F0CF1080C7FF4BDAE2CE07E
:1052100004F108036469A34208BF02303FF475AE8D
:105220003AE61C461A445168DB6854F8085F41F0BE
:10523000010151603046EB609D6000F019F93BE6DA
:105240005B3041004CE69A0938324FEA420CAAE73B
:10525000BC42454B3FF40DAF9C68626822F00302EC
:1052600067E7D8F8008098457CD110F0030FA8F1CB
:10527000080300F1FF30F4D17B6823EA04037B606C
:1052800064009C423FF6C9AE002C3FF4C6AE2342F8
:1052900048467FF475AE6400234200F10400FAD062
:1052A0006EE6B0F5AA7F18D8E80B7730410017E614
:1052B0004FF48051FAE6D8F8043092104FF0010C08
:1052C0000CFA02F21343C8F804300A467DE70123C2
:1052D000C9F804304C4600222BE740F25453984260
:1052E0001CD8A80C7C304100FAE51032B3E6542AF1
:1052F00023D81A0B6E324FEA420C54E7BC6862683E
:1053000022F0030215E7CBF30B0000287FF4B8AEC0
:105310004244BB6842F001025A60FCE6FC217E2058
:10532000DEE501224FF0000AD3E604F10801304621
:1053300001F016F9DAF80010EDE6B2F5AA7F04D80C
:10534000DA0B77324FEA420C2DE740F254518A4291
:1053500004D89A0C7C324FEA420C24E74FF0FC0C44
:105360007E2220E77B688BE73C040020032A70B490
:1053700026D940EA01039B0711D004780D78AC428E
:1053800022D10244431C05E013F8014B11F8015FE0
:10539000AC4219D19342F7D1002070BC70470C4643
:1053A00003461E6825681846AE42214603F10403F1
:1053B00004F1040404D1043A032A18462146F0D823
:1053C000002ADAD11046E8E7601B70BC704700BFC6
:1053D00070B4840746D0541E002A41D0CDB2034693
:1053E00002E0621EE4B3144603F8015B9A07F8D1A9
:1053F000032C2ED9CDB245EA05250F2C45EA0545EB
:1054000019D9264603F11002103E0F2E42F8105C07
:1054100042F80C5C42F8085C42F8045C02F11002AD
:10542000F2D8A4F1100222F00F0204F00F0410329F
:10543000032C13440DD91E462246043A032A46F88B
:10544000045BFAD8221F22F003020432134404F052
:1054500003042CB1C9B21C4403F8011BA342FBD1C5
:1054600070BC704714460346C2E700BF704700BFD8
:10547000704700BF38B5074C002305460846236037
:10548000FCF7BEF9431C00D038BD2368002BFBD0CD
:105490002B6038BD684E002020F0030110F003009F
:1054A000C0F1000051F8043B00F1040C4FEACC0CB1
:1054B0006FF000021CBF22FA0CF213434FF0010CF4
:1054C0004CEA0C2C4CEA0C4CA3EB0C0222EA030233
:1054D00012EACC1204BF51F8043B0430F4D0C2F1FC
:1054E000000102EA0102B2FA82F2C2F11F0200EBED
:1054F000D20070472DE9F0410F46904601F09EFF23
:1055000004460D46B8F1000F11D0C7F30A53C3F19A
:105510006B03002B0BDD1B0503F17F55002405F504
:10552000401522462B46FBF785FBBDE8F08120465F
:105530002946BDE8F08100BF2DE9F04F0F469FB02E
:1055400083460B4600200021CDE90401039200228E
:1055500019971A921C4613F8016B2D2E00F2F08059
:10556000DFE816F02E00EE00EE00EE00EE00EE009A
:10557000EE00EE00EE00DD00DD00DD00DD00DD0010
:10558000EE00EE00EE00EE00EE00EE00EE00EE00AB
:10559000EE00EE00EE00EE00EE00EE00EE00EE009B
:1055A000EE00EE00DD00EE00EE00EE00EE00EE009C
:1055B000EE00EE00EE00EE00EE004400EE00DA0039
:1055C000039B4FF000084FF0000953B100230693EE
:1055D000039B1F60069B23B1414609F100438846A7
:1055E0009946404649461FB0BDE8F08F0023069318
:1055F000631C19936678002EE2D0302E1C4600F012
:10560000A480002308940A93A6F130034FF0000A07
:10561000092B55462346544619D8082CC8BF0AEB17
:105620008A0A05EB850203F1010306EB4202199396
:10563000C4BF06EB4A06A6F1300A1E78D8BFA2F115
:105640003005A6F13002092A04F10104E5D95846D3
:10565000079301F0F9FBD0F80080584601F0F4FB05
:105660000068FFF719FF079B02464146184602F003
:1056700041F88046002800F0E480002084468646F9
:10568000A146652E73D0452E71D00023B9F1000FCD
:1056900047D0B9F1100FC846CCEB03032846A8BF8A
:1056A0004FF010080793FBF74FFA002C08BF4C4649
:1056B000B8F1090FCDE9040113DD764B03EBC80304
:1056C00053E91223FBF7B6FA064650460F46FBF79E
:1056D0003BFA02460B4630463946FBF7F9F8CDE96E
:1056E0000401B9F10F0F00F3D780079B002B00F0E6
:1056F000A580079B40F36785162B00F3D284DDE974
:1057000004230798634901EBC001D1E90001FBF7CD
:1057100091FA804689460DE00123069368E71993C4
:1057200018E718B90A9B002B00F0A1824FF000087F
:105730004FF00009039B002B3FF44CAF199F47E744
:105740000023302E06937FF45CAF6378582B00F073
:10575000A483782B00F0A183013419942678302E8D
:10576000FAD0002EE2D0012308940A934CE7B9F155
:10577000000F4ED0199F7B1C19937E782B2E00F0C2
:105780006D822D2E00F064824FF00008A6F13003E8
:10579000092B324600F20282302E06D1199B0133CA
:1057A00019931E78302EFAD03246313A082A3FF645
:1057B0006CAF199B19460A46013219920793A6F15C
:1057C00030034E78A6F1300109290BD80132199225
:1057D00003EB830306EB43031678303BA6F130015D
:1057E0000929F3D90799521A082A00F3518444F67B
:1057F0001F629342A8BF1346C8F1000253404344BE
:10580000B9F1000F7FF445AF8BE74FF0000C4FF07C
:10581000010E002840F028820A9B002B3FF4D0AEF6
:105820008146A7E76FF0004305934FF0FF330493E1
:105830002B0742BF059B43F000430593DDE9048934
:1058400078E7584601F000FB0068FFF725FE199B3A
:105850001A1819921E5C002C40F0E881302E204668
:1058600005D10132199216780130302EF9D0A6F107
:105870003103082B00F2A082199B303E089300F1FF
:10588000010C4FF0010905EB850506EB45050020ED
:10589000DAE100BF007C0008079BC8EB09089844C8
:1058A000B8F1000F40F39A8318F00F000AD0DDE939
:1058B0000423C14901EBC001D1E90001FBF7BAF9AA
:1058C000CDE9040138F00F0640F0288200230A9346
:1058D0000095089922464B46584601F02DFB109042
:1058E000002800F03B83079A0021002AC2F1000340
:1058F000A8BF0B460F460C9322EAE27307910B9365
:10590000109C5846616801F0A3FA8246002800F016
:10591000A582DDE9042321469046994622690C318F
:10592000023292000C30CDE90889FBF743FE1BA838
:105930001CA98DE8030042464B46584601F008FE7C
:105940001A90002800F08B825846012101F08EFB4E
:105950000746002800F082821B9A002AC0F21281BA
:105960000C9B0B9903EB02080A981C9B121A1A4411
:105970006FF47F708242C3F1360380F2EC80801AAC
:105980001F28A3EB000300F30281012500228540BC
:10599000119208EB0309C1454A46A8BF4246CE18FA
:1059A0000A9B1E44B2421346A8BF3346002B04DDB7
:1059B000C3EB0909F61AC3EB08080C9BB3B13946CF
:1059C00058461A4601F0FCFB0746002800F04682C4
:1059D000584639461A9A01F053FB0446002800F055
:1059E0003D8258461A9901F05BFA1A94B9F1000FFA
:1059F00008DD4A4658461A9901F032FC1A900028F0
:105A000000F02D820B9B43B1514658460B9A01F092
:105A1000D7FB8246002800F02182002E08DD514687
:105A20003246584601F01CFC8246002800F01682DF
:105A3000B8F1000F08DD39464246584601F010FC27
:105A40000746002800F00A8258461A99524601F08B
:105A500083FC0790002800F00182079A0026D36893
:105A60003946D6600D9301F053FCB042C0F2208459
:105A700000F0DD830798394601F0BEFD00224FF0AB
:105A8000804304460D46FBF775FE002867D00D9B4A
:105A9000002B00F0A280B146484DDDF814C0DFF8BD
:105AA0001C810024464E474B0CEA06069E4200F03D
:105AB00027820A9B23B3B6F1D46F21D83CA3D3E944
:105AC000002348464146FBF755FEB0B148464146E3
:105AD000FBF7C2FA8146002800F02683FBF734F872
