:020000040800F2
:1000000000500020FD150008592900083D2C00086B
:100010003D1600083D1600083D16000800000000CF
:10002000000000000000000000000000ED300008AB
:100030003D16000800000000E93100082D320008DC
:100040003D1600083D1600083D1600083D16000844
:100050003D1600083D1600083D1600083D16000834
:100060003D1600083D1600083D1600083D16000824
:100070003D1600083D1600083D1600083D16000814
:100080003D1600083D1600083D1600083D16000804
:100090003D1600083D1600083D1600083D160008F4
:1000A0003D1600083D1600083D1600083D160008E4
:1000B0003D1600083D1600083D1600083D160008D4
:1000C0003D1600083D1600083D1600083D160008C4
:1000D0003D160008391800083D1600083D160008B6
:1000E0003D1600083D1600083D16000800000000FF
:1000F0000000000000000000000000000000000000
:0C01000000000000000000005FF808F1A3
:10010C0010B5054C237833B9044B13B10448AFF345
:10011C0000800123237010BD40040020000000006B
:10012C000C010008084B10B51BB108480849AFF387
:10013C0000800848036803B910BD074B002BFBD0A7
:10014C00BDE81040184700BF000000000C0100087B
:10015C0044040020400400200000000081F0004115
:10016C0002E000BF83F0004330B54FEA41044FEA90
:10017C00430594EA050F08BF90EA020F1FBF54EA2B
:10018C00000C55EA020C7FEA645C7FEA655C00F0C7
:10019C00E2804FEA5454D4EB5555B8BF6D420CDD98
:1001AC002C4480EA020281EA030382EA000083EA1B
:1001BC00010180EA020281EA0303362D88BF30BDBB
:1001CC0011F0004F4FEA01314FF4801C4CEA113111
:1001DC0002D0404261EB410113F0004F4FEA033370
:1001EC004CEA133302D0524263EB430394EA050FFB
:1001FC0000F0A780A4F10104D5F1200E0DDB02FA6A
:10020C000EFC22FA05F2801841F1000103FA0EF2FD
:10021C00801843FA05F359410EE0A5F120050EF1C3
:10022C00200E012A03FA0EFC28BF4CF0020C43FAF4
:10023C0005F3C01851EBE37101F0004507D54FF001
:10024C00000EDCF1000C7EEB00006EEB0101B1F551
:10025C00801F1BD3B1F5001F0CD349085FEA300097
:10026C004FEA3C0C04F101044FEA445212F5800FA2
:10027C0080F09A80BCF1004F08BF5FEA500C50F13F
:10028C00000041EB045141EA050130BD5FEA4C0C22
:10029C00404141EB010111F4801FA4F10104E9D1AB
:1002AC0091F0000F04BF01460020B1FA81F308BFA2
:1002BC002033A3F10B03B3F120020CDA0C3208DD6E
:1002CC0002F1140CC2F10C0201FA0CF021FA02F149
:1002DC000CE002F11402D8BFC2F1200C01FA02F1B9
:1002EC0020FA0CFCDCBF41EA0C019040E41AA2BFDE
:1002FC0001EB0451294330BD6FEA04041F3C1CDAA6
:10030C000C340EDC04F11404C4F1200220FA04F0C5
:10031C0001FA02F340EA030021FA04F345EA03016F
:10032C0030BDC4F10C04C4F1200220FA02F001FA31
:10033C0004F340EA0300294630BD21FA04F02946B3
:10034C0030BD94F0000F83F4801306BF81F480114C
:10035C000134013D4EE77FEA645C18BF7FEA655CBF
:10036C0029D094EA050F08BF90EA020F05D054EA91
:10037C00000C04BF1946104630BD91EA030F1EBF96
:10038C000021002030BD5FEA545C05D1400049419A
:10039C0028BF41F0004130BD14F580043CBF01F58D
:1003AC00801130BD01F0004545F0FE4141F4700173
:1003BC004FF0000030BD7FEA645C1ABF194610464E
:1003CC007FEA655C1CBF0B46024650EA013406BF4F
:1003DC0052EA033591EA030F41F4002130BD00BF0E
:1003EC0090F0000F04BF0021704730B54FF48064CB
:1003FC0004F132044FF000054FF0000150E700BF4C
:10040C0090F0000F04BF0021704730B54FF48064AA
:10041C0004F1320410F0004548BF40424FF0000197
:10042C003EE700BF42004FEAE2014FEA31014FEADA
:10043C0002701FBF12F07F4393F07F4F81F0605129
:10044C00704792F0000F14BF93F07F4F704730B598
:10045C004FF4607401F0004521F0004120E700BF2B
:10046C0050EA010208BF704730B54FF000050AE0B2
:10047C0050EA010208BF704730B511F0004502D5B3
:10048C00404261EB41014FF4806404F132045FEAB5
:10049C00915C3FF4DCAE4FF003025FEADC0C18BF5A
:1004AC0003325FEADC0C18BF033202EBDC02C2F150
:1004BC00200300FA03FC20FA02F001FA03FE40EAE2
:1004CC000E0021FA02F11444C1E600BF80F0004096
:1004DC0002E000BF81F0004142001FBF5FEA410310
:1004EC0092EA030F7FEA226C7FEA236C6AD04FEA10
:1004FC001262D2EB1363C1BFD21841404840414055
:10050C00B8BF5B42192B88BF704710F0004F40F406
:10051C00000020F07F4018BF404211F0004F41F422
:10052C00000121F07F4118BF494292EA030F3FD0EE
:10053C00A2F1010241FA03FC10EB0C00C3F1200301
:10054C0001FA03F100F0004302D5494260EB400090
:10055C00B0F5000F13D3B0F1807F06D340084FEAFB
:10056C00310102F10102FE2A51D2B1F1004F40EBF0
:10057C00C25008BF20F0010040EA03007047490058
:10058C0040EB000010F4000FA2F10102EDD1B0FA23
:10059C0080FCACF1080CB2EB0C0200FA0CF0AABF18
:1005AC0000EBC25052421843BCBFD04018437047B6
:1005BC0092F0000F81F4000106BF80F400000132BC
:1005CC00013BB5E74FEA41037FEA226C18BF7FEA93
:1005DC00236C21D092EA030F04D092F0000F08BFD5
:1005EC000846704790EA010F1CBF0020704712F0BC
:1005FC007F4F04D1400028BF40F00040704712F1FB
:10060C0000723CBF00F50000704700F0004343F05F
:10061C00FE4040F4000070477FEA226216BF084695
:10062C007FEA23630146420206BF5FEA412390EA58
:10063C00010F40F4800070474FF0000304E000BF4E
:10064C0010F0004348BF40425FEA000C08BF7047FF
:10065C0043F0964301464FF000001CE050EA0102C3
:10066C0008BF70474FF000030AE000BF50EA0102D8
:10067C0008BF704711F0004302D5404261EB4101C5
:10068C005FEA010C02BF84460146002043F0B643EA
:10069C0008BFA3F18053A3F50003BCFA8CF2083A0F
:1006AC00A3EBC25310DB01FA02FC634400FA02FC18
:1006BC00C2F12002BCF1004F20FA02F243EB02001F
:1006CC0008BF20F00100704702F1200201FA02FC81
:1006DC00C2F1200250EA4C0021FA02F243EB020074
:1006EC0008BF20EADC7070474FF0FF0C1CEAD052B8
:1006FC001EBF1CEAD15392EA0C0F93EA0C0F6FD079
:10070C001A4480EA010C400218BF5FEA41211ED056
:10071C004FF0006343EA501043EA5111A0FB013142
:10072C000CF00040B1F5000F3EBF490041EAD37117
:10073C005B0040EA010062F17F02FD2A1DD8B3F193
:10074C00004F40EBC25008BF20F00100704790F002
:10075C00000F0CF0004C08BF49024CEA502040EA54
:10076C0051207F3AC2BFD2F1FF0340EAC25070471A
:10077C0040F400004FF00003013A5DDC12F1190F58
:10078C00DCBF00F000407047C2F10002410021FACA
:10079C0002F1C2F1200200FA02FC5FEA310040F1E2
:1007AC00000053EA4C0308BF20EADC70704792F05B
:1007BC00000F00F0004C02BF400010F4000F013A93
:1007CC00F9D040EA0C0093F0000F01F0004C02BF8E
:1007DC00490011F4000F013BF9D041EA0C018FE7FD
:1007EC000CEAD15392EA0C0F18BF93EA0C0F0AD003
:1007FC0030F0004C18BF31F0004CD8D180EA010029
:10080C0000F00040704790F0000F17BF90F0004FC1
:10081C00084691F0000F91F0004F14D092EA0C0FA3
:10082C0001D142020FD193EA0C0F03D14B0218BF36
:10083C00084608D180EA010000F0004040F0FE407C
:10084C0040F40000704740F0FE4040F44000704718
:10085C004FF0FF0C1CEAD0521EBF1CEAD15392EA97
:10086C000C0F93EA0C0F69D0A2EB030280EA010C87
:10087C0049024FEA402037D04FF0805343EA111120
:10088C0043EA10130CF000408B4238BF5B0042F17E
:10089C007D024FF4000C8B4224BF5B1A40EA0C0023
:1008AC00B3EB510F24BFA3EB510340EA5C00B3EB55
:1008BC00910F24BFA3EB910340EA9C00B3EBD10F43
:1008CC0024BFA3EBD10340EADC001B0118BF5FEA95
:1008DC001C1CE0D1FD2A3FF650AF8B4240EBC250BE
:1008EC0008BF20F0010070470CF0004C4CEA50207F
:1008FC007F32C2BFD2F1FF0340EAC250704740F4CE
:10090C0000004FF00003013A37E792F0000F00F0BF
:10091C00004C02BF400010F4000F013AF9D040EA3D
:10092C000C0093F0000F01F0004C02BF490011F4D1
:10093C00000F013BF9D041EA0C0195E70CEAD153C9
:10094C0092EA0C0F08D142027FF47DAF93EA0C0FB0
:10095C007FF470AF084676E793EA0C0F04D14B0294
:10096C003FF44CAF08466EE730F0004C18BF31F046
:10097C00004CCAD130F000427FF45CAF31F0004340
:10098C007FF43CAF5FE700BF4FF0FF3C06E000BFD9
:10099C004FF0010C02E000BF4FF0010C4DF804CDFC
:1009AC004FEA40024FEA41037FEA226C18BF7FEA0C
:1009BC00236C11D001B052EA530C18BF90EA010F0E
:1009CC0058BFB2EB030088BFC81738BF6FEAE1709D
:1009DC0018BF40F0010070477FEA226C02D15FEA39
:1009EC00402C05D17FEA236CE4D15FEA412CE1D0A5
:1009FC005DF8040B704700BF844608466146FFE76C
:100A0C000FB5FFF7C9FF002848BF10F1000F0FBD4D
:100A1C004DF808EDFFF7F4FF0CBF012000205DF846
:100A2C0008FB00BF4DF808EDFFF7EAFF34BF0120CB
:100A3C0000205DF808FB00BF4DF808EDFFF7E0FF64
:100A4C0094BF012000205DF808FB00BF4DF808EDB5
:100A5C00FFF7D2FF94BF012000205DF808FB00BF18
:100A6C004DF808EDFFF7C8FF34BF012000205DF8FA
:100A7C0008FB00BF7BB972B90029BEBF00204FF044
:100A8C00004106E008BF00281CBF6FF000414FF08A
:100A9C00FF3000F075B882B0EC462DE9005000F044
:100AAC003FF8DDF804E002B00CBC704710B5002133
:100ABC000446FFF7B7FF20B92046BDE8104000F010
:100ACC0009B804F1004000F005F8404261EB410127
:100ADC0010BD00BFD0B5FFF7A5FC00220E4B06469B
:100AEC000F4600F04FF800F05FFA0446FFF778FC71
:100AFC0000220A4B00F046F802460B4630463946B7
:100B0C00FFF730FB00F050FA2346002242EA0002C5
:100B1C0010461946D0BD00BF0000F03D0000F0416A
:100B2C002DE9F041069C904606460F461D4600F006
:100B3C005BFA08FB01FCA8FB002300FB05C5B21AFD
:100B4C002B4467EB03038646C4E90023BDE8F08120
:100B5C002DE9F843089E1746804689461D4600F04D
:100B6C0099FB00FB05F3A0FB074507FB0137B8EB2E
:100B7C0004043D4469EB0505C6E90045BDE8F8836E
:100B8C00704700BF70B54FF0FF0C4CF4E06C1CEAE2
:100B9C0011541DBF1CEA135594EA0C0F95EA0C0F67
:100BAC0000F0DEF82C4481EA030621EA4C5123EADA
:100BBC004C5350EA013518BF52EA033541F4801109
:100BCC0043F4801338D0A0FB02CE4FF00005E1FBBC
:100BDC0002E506F00042E0FB03E54FF00006E1FB06
:100BEC0003569CF0000F18BF4EF0010EA4F1FF0449
:100BFC00B6F5007F64F5407404D25FEA4E0E6D4189
:100C0C0046EB060642EAC62141EA55514FEAC52099
:100C1C0040EA5E504FEACE2EB4F1FD0C88BFBCF515
:100C2C00E06F1ED8BEF1004F08BF5FEA500E50F1C6
:100C3C00000041EB045170BD06F0004646EA01018C
:100C4C0040EA020081EA0301B4EB5C04C2BFD4EBBE
:100C5C000C0541EA045170BD41F480114FF0000EB7
:100C6C00013C00F3AB8014F1360FDEBF002001F025
:100C7C00004170BDC4F10004203C35DA0C341BDC9F
:100C8C0004F11404C4F1200500FA05F320FA04F071
:100C9C0001FA05F240EA020001F0004221F00041A5
:100CAC0010EBD37021FA04F642EB06015EEA430E18
:100CBC0008BF20EAD37070BDC4F10C04C4F1200548
:100CCC0000FA04F320FA05F001FA04F240EA0200FB
:100CDC0001F0004110EBD37041F100015EEA430ECC
:100CEC0008BF20EAD37070BDC4F1200500FA05F2EC
:100CFC004EEA020E20FA04F301FA05F243EA02036B
:100D0C0021FA04F001F0004121FA04F220EA020079
:100D1C0000EBD3705EEA430E08BF20EAD37070BDBF
:100D2C0094F0000F0FD101F00046400041EB01019F
:100D3C0011F4801F08BF013CF7D041EA060195F081
:100D4C00000F18BF704703F00046520043EB03033B
:100D5C0013F4801F08BF013DF7D043EA0603704728
:100D6C0094EA0C0F0CEA135518BF95EA0C0F0CD033
:100D7C0050EA410618BF52EA4306D1D181EA030179
:100D8C0001F000414FF0000070BD50EA410606BF73
:100D9C001046194652EA430619D094EA0C0F02D1B8
:100DAC0050EA013613D195EA0C0F05D152EA0336FD
:100DBC001CBF104619460AD181EA030101F000411B
:100DCC0041F0FE4141F470014FF0000070BD41F064
:100DDC00FE4141F4780170BD70B54FF0FF0C4CF43E
:100DEC00E06C1CEA11541DBF1CEA135594EA0C0F5D
:100DFC0095EA0C0F00F0A7F8A4EB050481EA030EAA
:100E0C0052EA03354FEA013100F088804FEA033390
:100E1C004FF0805545EA131343EA12634FEA02225E
:100E2C0045EA111545EA10654FEA00260EF000411F
:100E3C009D4208BF964244F1FD0404F5407402D271
:100E4C005B084FEA3202B61A65EB03055B084FEA02
:100E5C0032024FF480104FF4002CB6EB020E75EBFF
:100E6C00030E22BFB61A754640EA0C005B084FEA27
:100E7C003202B6EB020E75EB030E22BFB61A7546A4
:100E8C0040EA5C005B084FEA3202B6EB020E75EBEF
:100E9C00030E22BFB61A754640EA9C005B084FEA67
:100EAC003202B6EB020E75EB030E22BFB61A754674
:100EBC0040EADC0055EA060E18D04FEA051545EA63
:100ECC0016754FEA06164FEAC30343EA52734FEA0C
:100EDC00C2025FEA1C1CC0D111F4801F0BD141EA85
:100EEC0000014FF000004FF0004CB6E711F4801FEA
:100EFC0004BF01430020B4F1FD0C88BFBCF5E06FCA
:100F0C003FF6AFAEB5EB030C04BFB6EB020C5FEAD9
:100F1C00500C50F1000041EB045170BD0EF0004E2E
:100F2C004EEA113114EB5C04C2BFD4EB0C0541EA60
:100F3C00045170BD41F480114FF0000E013C90E65D
:100F4C0045EA060E8DE60CEA135594EA0C0F08BF21
:100F5C0095EA0C0F3FF43BAF94EA0C0F0AD150EA20
:100F6C0001347FF434AF95EA0C0F7FF425AF1046B3
:100F7C0019462CE795EA0C0F06D152EA03353FF4DB
:100F8C00FDAE1046194622E750EA410618BF52EA58
:100F9C0043067FF4C5AE50EA41047FF40DAF52EA2C
:100FAC0043057FF4EBAE12E74A0011D212F50012A2
:100FBC0011D20DD56FF47873B3EB62520ED44FEAA5
:100FCC00C12343F0004343EA505323FA02F0704725
:100FDC004FF00000704750EA013002D14FF0FF3063
:100FEC0070474FF00000704700292DE9F043C0F224
:100FFC00A8800026002BC0F29E8081468E4690462B
:10100C009C46174604460D46002B3DD18A4259D9C1
:10101C00B2FA82F33BB1C3F120029D4020FA02F2F6
:10102C009F4015439C40390CB5FBF1F01FFA87FE2D
:10103C0001FB10550EFB00F3220C42EA0545AB42B6
:10104C0009D9ED1900F1FF3280F00B81AB4240F26F
:10105C00088102383D44ED1AB5FBF1F301FB135541
:10106C000EFB03FEA4B244EA0545AE4508D9ED19C2
:10107C0003F1FF3280F0F780AE4540F2F480023B82
:10108C0043EA0043002203E08B420FD900221346AF
:10109C00341C18BF012460424FF0000565EB45017C
:1010AC005840514000196941BDE8F083B3FA83F20E
:1010BC00002A40F089808B4202D3804500F2E28006
:1010CC000123E5E712B90123B3FBF2F7B7FA87F86E
:1010DC00B8F1000F3BD1ED1B4FEA174C1FFA87FEFE
:1010EC000122B5FBFCF00CFB10550EFB00F3210CA0
:1010FC0041EA0545AB4207D9ED1900F1FF3102D2A7
:10110C00AB4200F2C3800846ED1AB5FBFCF30CFBB6
:10111C0013550EFB03FEA4B244EA0545AE4507D9B0
:10112C00ED1903F1FF3102D2AE4500F2AD800B4652
:10113C0043EA0043ACE752426FEA060663EB430313
:10114C005BE7404261EB41014FF0FF3652E707FA93
:10115C0008F7C8F1200225FA02F34FEA174CB3FB4B
:10116C00FCF11FFA87FE0CFB113324FA02F205FA8C
:10117C0008F50EFB01F92A43100C40EA034399458C
:10118C0004FA08F407D9DB1901F1FF3078D299453C
:10119C0076D902393B44C9EB0303B3FBFCF00CFBDF
:1011AC0010330EFB00F592B242EA03439D4207D97D
:1011BC00DB1900F1FF325FD29D425DD902383B440E
:1011CC005D1B40EA01428CE7C2F1200328FA03F1CF
:1011DC000CFA02FC41EA0C0C4FEA1C402EFA03F10B
:1011EC00B1FBF0F51FFA8CF700FB151129FA03F38C
:1011FC000EFA02FE07FB05F943EA0E0E4FEA1E43F8
:10120C0043EA0141894508FA02F808D911EB0C01AF
:10121C0005F1FF3332D2894530D9023D6144C9EB27
:10122C000101B1FBF0F300FB131107FB03F71FFAED
:10123C008EFE4EEA014E774508D91EEB0C0E03F1DB
:10124C00FF3117D2774515D9023BE64443EA0543F3
:10125C00A3FB0889C7EB0E0ECE4509D305D000229F
:10126C0016E71046F7E613460AE794404445F6D2D3
:10127C00013BF4E70B46E9E71046A1E71D46CEE734
:10128C00014688E7134603E7023B51E702383D4429
:10129C003AE700BF2DE9F043002B44D18A421546B2
:1012AC0004464FD9B2FA82F70E464FB1C7F120036C
:1012BC00B94020FA03F602FA07F50E4300FA07F4D8
:1012CC002F0CB6FBF7F01FFA85FE07FB10620EFB26
:1012DC0000F1260C46EA0243994209D95B1900F148
:1012EC00FF3280F0EE80994240F2EB8002382B44C2
:1012FC00591AB1FBF7F307FB13110EFB03FEA4B253
:10130C0044EA01418E4508D9491903F1FF3280F0B6
:10131C00DA808E4540F2D780023B43EA004000263B
:10132C003146BDE8F0838B4247D8B3FA83F6002EE2
:10133C0048D18B4202D3824200F2CF800120314649
:10134C00BDE8F08312B90125B5FBF2F5B5FA85FCC1
:10135C00BCF1000F78D1491B2F0C1FFA85FE01261A
:10136C00B1FBF7F007FB10110EFB00F2230C43EA64
:10137C0001418A4207D9491900F1FF3302D28A424E
:10138C0000F2BC801846891AB1FBF7F307FB131166
:10139C000EFB03FEA4B244EA0142964508D9521949
:1013AC0003F1FF3180F09180964540F28E80023B34
:1013BC0043EA00403146BDE8F08300263046314612
:1013CC00BDE8F083C6F1200422FA04F5B3402B43A8
:1013DC0021FA04F74FEA1348B7FBF8FC1FFA83F91C
:1013EC0008FB1C7720FA04FE01FA06F509FB0CF445
:1013FC004EEA05054FEA154E4EEA0747BC4202FA83
:10140C0006F204D9FF180CF1FF3168D38C463F1B50
:10141C00B7FBF8F408FB147709FB04F9ADB245EA05
:10142C000741894504D9C91804F1FF355DD32C4611
:10143C0044EA0C44A4FB0223C9EB0101994249D3B1
:10144C0045D0204600266BE7CCF1200405FA0CF5BC
:10145C0021FA04F32A0CB3FBF2F61FFA85FE02FB09
:10146C00163820FA04F701FA0CF10EFB06F90F43BB
:10147C003C0C44EA0843994500FA0CF407D95B1973
:10148C0006F1FF3138D2994536D9023E2B44C9EBCF
:10149C000303B3FBF2F002FB10330EFB00F1BFB2FF
:1014AC0047EA0343994207D95B1900F1FF3721D270
:1014BC0099421FD902382B441746591A40EA06465E
:1014CC004EE7104614E7134627E70B4670E7B0408B
:1014DC009042B6D2601E002622E7304620E7BC427E
:1014EC0094D9ACF1020C1F4491E789459FD9023C79
:1014FC0019449DE73846DFE70E46C8E70238294411
:10150C0041E700BF844641EA000313F0030349D1CD
:10151C00403A23D30B6803604B6843608B6883604D
:10152C00CB68C3600B6903614B6943618B69836151
:10153C00CB69C3610B6A03624B6A43628B6A836239
:10154C00CB6AC3620B6B03634B6B43638B6B836321
:10155C00CB6BC36340304031403ADBD230320BD3DB
:10156C000B6803604B6843608B688360CB68C36017
:10157C0010301031103AF3D20C3205D351F8043B31
:10158C0040F8043B043AF9D2043208D0D2071CBF0D
:10159C0011F8013B00F8013B01D30B880380604636
:1015AC00704700BF082A13D38B07B1D010F0030388
:1015BC00AED0C3F10403D21ADB071CBF11F8013BF8
:1015CC0000F8013BA4D331F8023B20F8023B9FE723
:1015DC00043AD9D3013A11F8013B00F8013BF9D296
:1015EC000B7803704B7843708B7883706046704730
:1015FC00002103E0094B5B58435004310848094B68
:10160C0042189A42F6D3084A02E0002342F8043BFF
:10161C00064B9A42F9D301F0A7F9704774500008B1
:10162C00000000204004002040040020DC49002081
:10163C00FEE7000080B483B000AF0346FB7108499D
:10164C0097F907305B09FA7902F01F02012000FAC2
:10165C0002F241F823200C37BD465DF8047B70473D
:10166C0000E100E080B483B000AF03463960FB7149
:10167C0097F90730002B0BDA0D49FB7903F00F03B8
:10168C00043B3A68D2B21201D2B20B441A7609E08A
:10169C00084997F907303A68D2B21201D2B20B441A
:1016AC0083F800230C37BD465DF8047B704700BF00
:1016BC0000ED00E000E100E080B483B000AF034631
:1016CC003960FB80314A314B9B6943F004039361D1
:1016DC002F4A2F4B5B6823F0400353602C4A2C4B52
:1016EC005B6843F080035360294A294B5B6843F0E5
:1016FC0030035360264A264B5B6823F40063536027
:10170C00234A234B5B6843F480635360204A204B8D
:10171C005B6823F4407353601C4A1C4B9B6943F475
:10172C00804393611B49FB883A68B2FBF3F39BB28D
:10173C000B81184A174B9B899BB243F400539BB205
:10174C009381144A134B9B899BB223F480539BB215
:10175C009381104A0F4B9B899BB223F480639BB2FD
:10176C0093810C4A0B4B9B899BB243F00C039BB2AD
:10177C009381084A074B1B8A9BB223F440539BB2BC
:10178C0013820C37BD465DF8047B70470010024095
:10179C00000801400038014080B483B000AF03461C
:1017AC00FB7100BF074B1B889BB203F08003002B1F
:1017BC00F8D0044BFA7992B29A800C37BD465DF89A
:1017CC00047B70470038014080B500AF0B4A0B4BCF
:1017DC009B899BB243F020039BB29381074A074B32
:1017EC009B899BB243F040039BB293812520FFF76A
:1017FC0021FF25200F21FFF735FF80BD0038014068
:10180C0080B400AF084B1B889BB203F02003002B65
:10181C0004D0054B9B889BB2DBB200E0002318463A
:10182C00BD465DF8047B70470038014090B583B02D
:10183C0000AF1E4B1B889BB203F02003002B23D060
:10184C001B4B00221A60FFF7DBFF0346FB71194BA1
:10185C001A68174B1B681C46FB1D1046194622467E
:10186C00002301F057FE0246134B1A60124B1B6803
:10187C00012B03D01148002100F070F80C4B1B68B1
:10188C00012B01D101F06AFC084B1B889BB203F0C1
:10189C004003002B07D0054A044B1B889BB223F056
:1018AC0040039BB213800C37BD4690BD00380140FD
:1018BC005C04002084490020600400202C4D0008AA
:1018CC0080B584B000AF7860154B1B6818460021BA
:1018DC004FF0FF32002301F061FE0346012B1BD1B8
:1018EC000EE0104B1B68184679686422002301F047
:1018FC0085FDF860FB68012B02D17B6801337B60AE
:10190C007B681B78002BECD1054B1B68184600211B
:10191C000022002301F072FD1037BD4680BD00BFD0
:10192C00804900208849002080B584B000AF7860E1
:10193C00094B1A6807F10B03104619464FF0FF329A
:10194C00002301F02BFEF860FB68012B03D1FB7A1E
:10195C001846FFF721FFEBE78849002080B582B0DD
:10196C0000AF78600B46FB70FB78022B02D87868CE
:10197C00FFF7A6FF0837BD4680BD00BF80B485B019
:10198C0000AF786039600123FB6004E0FB687A6883
:10199C0002FB03F3FB603B685A1E3A60002BF5DC3C
:1019AC00FB6818461437BD465DF8047B704700BFD2
:1019BC0090B591B000AF786039604FF0FF324FF0C6
:1019CC00FF33C7E9042378684FF00001FFF72AF8CA
:1019DC000346002B09D04FF02D024FF00003C7E94E
:1019EC0004237B6883F000437B607B68FB60786832
:1019FC00FFF75CF802460B46C7E908234FF00002DC
:101A0C004FF00003C7E90E234FF000024FF0000324
:101A1C00C7E90C231EE03B6B01330A201946FFF784
:101A2C00ADFF03461846FEF70BFE034618467968D1
:101A3C00FEF75AFE0346FB60F868FFF737F80246DC
:101A4C000B46C7E90823D7E90C23013243F1000305
:101A5C00C7E90C23D7E90801FEF708FE0346F8682E
:101A6C001946FEF737FD034618464FF00001FEF706
:101A7C00CFFF0346002B1CD1D7E90801FEF7F6FD7A
:101A8C000346F8681946FEF725FD03461A4601235E
:101A9C001C4610464FF00001FEF7C4FF0346002B16
:101AAC0001D100231C46E3B283F00103DBB2002B0F
:101ABC00B1D101231C4678684FF07E51FEF7C6FF6A
:101ACC000346002B01D100231C46E3B283F0010333
:101ADC00DBB21A464FEAE273C7E90E230CE07868D2
:101AEC005349FEF7B5FE03467B60D7E90E2301325E
:101AFC0043F10003C7E90E2378684FF07E51FEF7DF
:101B0C00A5FF0346002BEAD1D7E90E23C7E906232C
:101B1C00D7E90C23012A73F100030BDBD7E90E2361
:101B2C00501C43F10001D7E90C23121843EB0103BD
:101B3C00C7E90E23F868FEF7B9FF02460B46C7E962
:101B4C000823D7E90423002B08BF2D2A0DD1D7E990
:101B5C000E23013243F10003C7E90E23D7E9062314
:101B6C00013243F10003C7E90623D7E90E23C7E985
:101B7C000A2353E0D7E90A01D7E90E23994208BF9B
:101B8C00904205D1BB6A3A68134400221A703DE0BA
:101B9C00D7E90A01D7E90623994208BF904205D13B
:101BAC00BB6A3A6813442E221A702FE0D7E904233B
:101BBC00002B08BF2D2A09D1D7E90A23134305D1DD
:101BCC00BB6A3A6813442D221A701FE0BB6A3A684C
:101BDC00D418D7E90823104619464FF00A024FF0E3
:101BEC000003FEF747FFD3B23033DBB2DBB2237016
:101BFC00D7E90823104619464FF00A024FF00003AC
:101C0C00FEF738FF02460B46C7E90823D7E90A233B
:101C1C0012F1FF3243F1FF33C7E90A23D7E90A2354
:101C2C00002A73F10003A5DA4437BD4690BD00BF0E
:101C3C000000204180B582B000AF786008480121D7
:101C4C0002F066FE4FF47A7001F004FF04480121A3
:101C5C0002F06CFE4FF47A7001F0FCFEEEE700BF70
:101C6C00000C014080B400AF0C4A0C4B9B6943F054
:101C7C00080393610A4A0A4B5B6823F0CC2323F4D4
:101C8C004C035360064A064B5B6843F0332343F422
:101C9C004C135360BD465DF8047B70470010024046
:101CAC00000C014080B487B000AF78607A681346AE
:101CBC005B001344DB007B610023FB6000233B6172
:101CCC0005E0FB680133FB603B6901333B613A691A
:101CDC007B699A42F5D31C37BD465DF8047B70478F
:101CEC0080B582B000AF78600A4A0A4BDB6843F4D7
:101CFC000063D3607868FFF7D5FF064A054BDB68B5
:101D0C0023F40063D3607868FFF7CCFF0837BD4637
:101D1C0080BD00BF000C014080B483B000AF03460F
:101D2C00FB71FB795BB2002B06DA244A234BDB6890
:101D3C0043F40043D36005E0204A204BDB6823F4D6
:101D4C000043D360FB7903F04003002B06D01B4A01
:101D5C001A4BDB6843F48043D36005E0174A174BFA
:101D6C00DB6823F48043D360FB7903F02003002B62
:101D7C0006D0124A114BDB6843F40053D36005E0E4
:101D8C000E4A0E4BDB6823F40053D360FB7903F04F
:101D9C001003002B06D0094A084BDB6843F4805330
:101DAC00D36005E0054A054BDB6823F48053D36010
:101DBC000C37BD465DF8047B704700BF000C01403A
:101DCC0080B483B000AF0346FB71FB7903F00803CA
:101DDC00002B06D0234A234BDB6843F40043D3602B
:101DEC0005E0204A1F4BDB6823F40043D360FB79EA
:101DFC0003F00403002B06D01A4A1A4BDB6843F499
:101E0C008043D36005E0174A164BDB6823F480430C
:101E1C00D360FB7903F00203002B06D0114A114B5F
:101E2C00DB6843F40053D36005E00E4A0D4BDB68CE
:101E3C0023F40053D360FB7903F00103002B06D08D
:101E4C00084A084BDB6843F48053D36005E0054A2D
:101E5C00044BDB6823F48053D3600C37BD465DF82C
:101E6C00047B7047000C014080B582B000AF034684
:101E7C00FB71FB791846FFF74FFF1420FFF730FF7B
:101E8C00FB791846FFF79CFF1420FFF729FF083752
:101E9C00BD4680BD80B500AF0120FFF7E5FFC8202F
:101EAC00FFF700FF014B00221A7080BD6404002074
:101EBC0080B582B000AF03460A46FB711346BB7176
:101ECC00FB79022B0BD0052B11D0012B17D1BB7931
:101EDC0063F07F03DBB21846FFF7C6FF0FE0BB7958
:101EEC0063F03F03DBB21846FFF7BEFF07E0BB7998
:101EFC0043F04003DBB21846FFF7B6FF00BF0837CC
:101F0C00BD4680BD80B582B000AF0346FB71094A67
:101F1C00084BDB6843F48063D360FB791846FFF70A
:101F2C00A3FF044A034BDB6823F48063D3600837B8
:101F3C00BD4680BD000C014080B582B000AF0346A9
:101F4C00FB71FB791846FFF7E7FE0920FFF7C8FE87
:101F5C000920FFF7C5FEFB791846FFF731FF282053
:101F6C00FFF7BEFE0837BD4680BD00BF80B500AF91
:101F7C0043F69820FFF796FEFFF774FE3020FFF72C
:101F8C0073FF3020FFF770FF3020FFF76DFF30201C
:101F9C00FFF76AFF3020FFF767FF2C20FFF7CCFF1D
:101FAC000C20FFF761FF0620FFF75EFF0120FFF713
:101FBC005BFF0220FFF758FF80BD00BF80B584B0E7
:101FCC0000AF78600023FB730123BB732E4BBB6007
:101FDC002E4B1B78012B55D12D4B1B68184600211D
:101FEC004FF0FF32002301F0D9FA0346012B46D102
:101FFC0039E0FB7B202B0AD1FFF74CFF0023FB734E
:10200C000123BB73BB7B18460021FFF751FFFB7B01
:10201C00102B0AD1BB7B012B07D1BB7B0133BB73CC
:10202C00BB7B18460021FFF743FFBB681B780A2BCC
:10203C000ED1FB7B102B13D0BB7B012B10D1BB7BA8
:10204C000133BB73BB7B18460021FFF731FF07E060
:10205C00BB681B781846FFF755FFFB7B0133FB73FE
:10206C00BB680133BB60BB681B78002BC1D1084B2C
:10207C001B68184600210022002301F0BFF9034B16
:10208C0000221A70A2E700BF94490020904900205A
:10209C00D449002080B582B000AF03463A60FB7192
:1020AC000B46BB71194B01221A70194B1B68184651
:1020BC0000214FF0FF32002301F070FA0346012B90
:1020CC001ED1BB79012B07D1FB791033114A134474
:1020DC001846396800F058F8BB79002B06D1FB790B
:1020EC000C4A13441846396800F04EF8084B1B682C
:1020FC00184600210022002301F080F9012300E0A2
:10210C00002318460837BD4680BD00BF904900200B
:10211C00D44900209449002080B582B000AF174B01
:10212C0001221A70164B1B68184600214FF0FF3223
:10213C00002301F033FA0346012B1AD10023FB7163
:10214C0006E0FB790F4A2021D154FB790133FB7156
:10215C00FB791F2BF5D90B4B002283F82020084B61
:10216C001B68184600210022002301F047F90123C7
:10217C0000E0002318460837BD4680BD904900207A
:10218C00D44900209449002080B483B000AF78601B
:10219C00396009E03B681A787B681A703B68013338
:1021AC003B607B6801337B603B681B78002BF1D173
:1021BC000C37BD465DF8047B704700BF80B400AFA0
:1021CC00044B054A5A60034B044A5A60BD465DF8FD
:1021DC00047B70470020024023016745AB89EFCD9B
:1021EC0080B400AF044A044B1B6943F080031361B5
:1021FC00BD465DF8047B70470020024080B400AF00
:10220C00064BDB6803F00103002B0CBF01230023FA
:10221C00DBB21846BD465DF8047B704700200240D7
:10222C0080B582B000AF7860FFF7C8FF0F4A0F4B44
:10223C001B6943F0020313610C4A7B6853610B4A20
:10224C000A4B1B6943F04003136100BFFFF7D6FF35
:10225C000346002BFAD0054A044B1B6923F00203FA
:10226C001361FFF7BDFF0837BD4680BD002002405B
:10227C0080B588B000AFF860B9607A600023FB834A
:10228C007B6803F57C437B610023BB6153E0BB6837
:10229C005A1EBB699A4212D1BB6803F00103002B92
:1022AC000DD0FF23FB83FB8B1B02FB83FA68BB69FE
:1022BC0013441B789AB2FB8B1343FB8310E0BB696E
:1022CC000133FA6813441B78FB83FB8B1B02FB83E3
:1022DC00FA68BB6913441B789AB2FB8B1343FB83DC
:1022EC00FFF76CFF174A174B1B6943F0010313618F
:1022FC0000BFFFF783FF0346002BFAD07B69FA8BF4
:10230C001A8000BFFFF77AFF0346002BFAD00D4A64
:10231C000C4B1B6923F0010313610A4A094B1B691F
:10232C0023F002031361FFF75BFF7B6902337B61D0
:10233C00BB690233BB61BA69BB689A42A7D3203729
:10234C00BD4680BD0020024080B487B000AFF8606D
:10235C00B9607A607B6803F57C433B6100237B6149
:10236C000BE0FA687B69134439697A690A4412688C
:10237C00D2B21A707B6901337B617A69BB689A426D
:10238C00EFD31C37BD465DF8047B704780B584B035
:10239C0004AF05202021002200F0BAFF0246144BA6
:1023AC001A60134B1B68002B03D112480021FFF756
:1023BC00D5FA0123009300230193002302930023F9
:1023CC0003930D480D498022002301F0A7FA012345
:1023DC0000930023019300230293002303930848E6
:1023EC0008498022002301F099FABD4680BD00BF48
:1023FC00D8490020504D00088D250008744D000868
:10240C0039270008884D000880B586B000AF786089
:10241C0007F108037B610023FB7478690821002213
:10242C00FFF792FF0DE07B681A787B691B789A4264
:10243C0001D000230AE07B6801337B607B690133A8
:10244C007B617B681B78002BEDD101231846183774
:10245C00BD4680BD80B584B000AF78607868082137
:10246C000022FFF705FF1037BD4680BD80B582B056
:10247C0000AF00237B600F480F4900F05BF80F485A
:10248C000F4900F057F80F480D4900F053F80E486B
:10249C000E4900F04FF80E480E4900F04BF87860EA
:1024AC000D480E4900F046F878607B6818460837EE
:1024BC00BD4680BD9C4D00086666E63EA44D0008F6
:1024CC003333333FB04D0008B84D00086666663FA5
:1024DC00C84D00080000C842D84D00081A02C84672
:1024EC00B0B58EB000AF7860396007F110033B6374
:1024FC0000237B6317E07B6B5B010833386B202177
:10250C001A46FFF721FF7B6B5B017A6813441D466B
:10251C0007F110040FCC0FC594E80F0085E80F00ED
:10252C007B6B01337B637A6B3B689A42E3D338371E
:10253C00BD46B0BD80B58CB000AF7860396007F196
:10254C0010031846796802F03BFA3B68BB620B4BF0
:10255C001B685B01083307F11002104620211A4654
:10256C00FFF786FE054B1B680133044A1360034BCF
:10257C001B68013B18463037BD4680BD68040020FF
:10258C0080B594B000AF78600123BB64002387F85A
:10259C004F3007F10C037B64614B1A6807F143035E
:1025AC00104619464FF0FF32002300F0F7FF0346A8
:1025BC00012B40F0B48097F84F30052BECD801A2DA
:1025CC0052F823F0E9250008012600081926000816
:1025DC003126000849260008A7260008002387F8A2
:1025EC004E3097F84330432B03D1012387F84F30FB
:1025FC0095E094E097F843304D2B03D1022387F8F4
:10260C004F308CE0002387F84F3088E097F8433048
:10261C00442B03D1032387F84F3080E0002387F845
:10262C004F307CE097F843305F2B03D1042387F8BD
:10263C004F3074E0002387F84F3070E097F8433048
:10264C003D2B1ED097F84E30132B25D897F84E30D3
:10265C0097F8432007F150010B4403F8442C97F8EA
:10266C004E30013387F84E3097F84E30132B13D879
:10267C0097F84E3007F150021344002203F8442C13
:10268C004DE097F84E3087F82030052387F84F300F
:10269C00002387F84E3042E041E097F843300D2B91
:1026AC0016D097F84E3097F8432007F150010B44A1
:1026BC0003F8242C97F84E30013387F84E3097F8F6
:1026CC004E3007F150021344002203F8242C26E06C
:1026DC0007F12C03184602F055F903461846FDF78E
:1026EC00AFFF03467B620F4B1B681846796C4FF0AB
:1026FC00FF32002300F082FEB864BB6C012B03D0C8
:10270C0009480021FFF72AF9FFF706FD7B6C002032
:10271C0000211A46FFF7BEFC002387F84F303BE739
:10272C0084490020D8490020E44D000880B59CB0B5
:10273C0000AF786001237B6607F140033B6607F12D
:10274C000C03FB66002387F86B303C4B1B68184668
:10275C00396E0A22002300F021FF78667B6E012B74
:10276C006AD107F11803364A1268114619800233F0
:10277C00120C1A703A6E07F1180302331846114600
:10278C0002F01EF93B6E1B7D023307F11802134455
:10279C002C4A10681860002387F86A300CE097F810
:1027AC006A3007F170021344002203F8642C97F886
:1027BC006A30013387F86A3097F86A30092BEED902
:1027CC003B6E9B691846FDF72DFE07F10C031A466C
:1027DC000A2302F0F3F8002387F86B3007E097F830
:1027EC006B30013387F86B30FB6E0133FB66FB6E8D
:1027FC001B78002BF3D13B6E1B7D053307F11802C0
:10280C001A4407F10C031046194602F0D9F83B6E36
:10281C001B7D1A4697F86B301344063307F11802E8
:10282C001344074A1188927819809A7007F118039B
:10283C0018460221FFF792F887E700BFD84900201D
:10284C00004E0008044E000880B483B000AF002393
:10285C007B6000233B603B4A3A4B1B6843F480335C
:10286C001360384B1B6803F400333B607B68013307
:10287C007B603B68002B03D17B68B3F5A06FF0D174
:10288C00304B1B6803F40033002B02D001233B6058
:10289C0001E000233B603B68012B4BD12A4A2A4BB9
:1028AC001B6843F010031360274A274B1B6823F067
:1028BC0003031360244A244B1B6843F00203136088
:1028CC00204A204B5B6853601E4A1E4B5B6853606A
:1028DC001C4A1C4B5B6843F480635360194A194BC8
:1028EC005B6823F47C135360164A164B5B6843F405
:1028FC0088135360134A134B1B6843F080731360A7
:10290C0000BF104B1B6803F00073002BF9D00D4A6D
:10291C000C4B5B6823F0030353600A4A094B5B685A
:10292C0043F00203536000BF064B5B6803F00C03DB
:10293C00082BF9D13B6818460C37BD465DF8047B73
:10294C00704700BF001002400020024080B400AF6E
:10295C00044A044B9B6843F400039360BD465DF846
:10296C00047B70470010024080B584B004AFFFF7C1
:10297C006BFF00F071F900F09FF900F085F9FFF79B
:10298C00F5FA4FF416501549FEF796FEFEF71CFFAC
:10299C00012000F0F5FC0246114B1A600123009354
:1029AC000023019300230293002303930D480E4947
:1029BC008022002300F0B2FF012300930023019337
:1029CC000023029300230393084809498022002323
:1029DC0000F0A4FF01F066F8FEE700BF00A24A0475
:1029EC00D4490020012A0008084E0008C91F00081D
:1029FC00144E000880B5C6B004AF3B1D1860694B7F
:102A0C00C7F8003107F1D803C7F8FC300023C7F82A
:102A1C00F830654B1B78002B02D0012B5FD0BFE048
:102A2C00FFF738FA00200021604AFFF733FB01233F
:102A3C0000930023019300230293002303935C482B
:102A4C005C498022002300F069FF012300930023DE
:102A5C000193002302930023039357485749802284
:102A6C00002300F05BFF20200121002200F050FC2D
:102A7C000246534B1A60012000F082FC0246514B77
:102A8C001A60012300930023019300230293002377
:102A9C0003934D484D498022002300F03FFF202036
:102AAC000121002200F034FC0246494B1A60484BCD
:102ABC001B68002B03D147480021FEF74FFF464807
:102ACC000121FEF74BFF37480121FEF747FF434832
:102ADC000121FEF743FF344B02221A7060E040489C
:102AEC000121FEF73BFFFFF751FCD7F80001FFF780
:102AFC008BFC0346002B0BD14FF47C40FFF790FB73
:102B0C00D7F80001FFF7A6FCFFF7B0FCC7F8F800F8
:102B1C0007F1080318460621FFF7E2FCFFF7FCFA61
:102B2C00002000212F4AFFF7B5FA2F480121FEF7AC
:102B3C0015FF0023C7F804312AE007F10802D7F883
:102B4C0004315B01134418460121FEF707FF2748A7
:102B5C000121FEF703FF07F10802D7F804315B01EE
:102B6C00134418331A6807F1C80310461946FEF7C8
:102B7C001FFF07F1C80318460121FEF7EFFE1748A7
:102B8C000121FEF7EBFED7F804310133C7F804310D
:102B9C00D7F80431052BD0D9034B02221A7000BF91
:102BAC0037E700BF0C4F00086C0400201C4E0008D7
:102BBC00411C0008404E0008FD2B0008484E000840
:102BCC00884900208049002035190008544E00081F
:102BDC0084490020684E0008884E0008984E000872
:102BEC009C4E0008D04E0008E04E0008F84E00083D
:102BFC0080B584B000AF78600023BB730023FB73F7
:102C0C0009484FF4807101F069FE0346BB73BA7B2F
:102C1C00FB7B9A4207D0BB7BFB73BB7B002B02D1A7
:102C2C00024B01221A70EBE7000C01406C040020EF
:102C3C0080B500AF0248022101F06AFE80BD00BFE2
:102C4C00000C014080B483B000AF0023FB710C3743
:102C5C00BD465DF8047B704780B582B000AF08209C
:102C6C00012101F071FE0323BB801023FB710323B0
:102C7C00BB713B1D0348194601F070FD0837BD467A
:102C8C0080BD00BF000C014080B582B000AF0820B1
:102C9C00012101F059FE4FF48073BB804823FB7176
:102CAC000323BB713B1D0348194601F057FD083740
:102CBC00BD4680BD000C014080B586B000AF4FF41E
:102CCC000070012101F040FE3B1D184601F0F4FBA1
:102CDC0000237B6000233B7200237B724FF4602344
:102CEC00FB6000233B6101233B753B1D12481946D9
:102CFC0001F090FB1048012101F0FAFB0E48012174
:102D0C000122052301F060FC0B4801F00DFC00BF13
:102D1C00094801F019FC0346002BF9D1064801F0D3
:102D2C002BFC00BF044801F037FC0346002BF9D103
:102D3C001837BD4680BD00BF0024014080B588B067
:102D4C0000AF786000237B6100F0D6FE3E4B1B6821
:102D5C00002B04D100F0B8F83B4B01221A607B68C1
:102D6C00002B0ED008231A467B6813447B607B68CB
:102D7C0003F00703002B04D07B6823F00703083310
:102D8C007B607B68002B57D07B6844F2F732934210
:102D9C0052D82E4BBB612D4B1B68FB6104E0FB69C9
:102DAC00BB61FB691B68FB61FB695A687B689A42D3
:102DBC0003D2FB691B68002BF1D1FB69244A9342B7
:102DCC003AD0BB691B68082213447B61FB691A6803
:102DDC00BB691A60FB695A687B68D31A08225200D7
:102DEC00934222D9FA697B681344FB60FB695A68E9
:102DFC007B68D21AFB685A60FB697A685A60FB6878
:102E0C005B68BB60114B3B6102E03B691B683B613B
:102E1C003B691B685A68BB689A42F6D33B691A68CF
:102E2C00FB681A603B69FA681A600A4B1A68FB69FE
:102E3C005B68D31A074A136000F06CFE7B69184676
:102E4C002037BD4680BD00BF804800207048002060
:102E5C00784800200000002080B586B000AF786074
:102E6C007B683B617B68002B27D008235B423A6967
:102E7C0013443B613B69FB6000F03EFEFB685B6802
:102E8C00BB600F4B7B6102E07B691B687B617B69DC
:102E9C001B685A68BB689A42F6D37B691A68FB6850
:102EAC001A607B69FA681A60FB685A68054B1B68E4
:102EBC001344044A136000F02DFE1837BD4680BD44
:102ECC00704800200000002080B483B000AF0F4B8E
:102EDC0023F007037B600E4A7B6813600C4B0022C7
:102EEC005A600C4B44F2F8325A600A4B00221A60BA
:102EFC007B683B603B6844F2F8325A603B68054A99
:102F0C001A600C37BD465DF8047B704778040020CE
:102F1C00704800207848002080B483B000AF7860FF
:102F2C007B6803F108027B685A607B684FF0FF32C4
:102F3C009A607B6803F108027B68DA607B6803F1B6
:102F4C0008027B681A617B6800221A600C37BD4648
:102F5C005DF8047B704700BF80B483B000AF78602D
:102F6C007B6800221A610C37BD465DF8047B704704
:102F7C0080B485B000AF786039607B685B68FB60BB
:102F8C003B68FA685A60FB689A683B689A60FB6811
:102F9C009B683A685A60FB683A689A603B687A6842
:102FAC001A617B681B685A1C7B681A601437BD4613
:102FBC005DF8047B704700BF80B485B000AF7860CB
:102FCC0039603B681B68BB60BB68B3F1FF3F03D142
:102FDC007B681B69FB600CE07B680833FB6002E0DC
:102FEC00FB685B68FB60FB685B681A68BB689A42AD
:102FFC00F6D9FB685A683B685A603B685B683A686C
:10300C009A603B68FA689A60FB683A685A603B6859
:10301C007A681A617B681B685A1C7B681A601437C3
:10302C00BD465DF8047B704780B485B000AF786016
:10303C007B681B69FB607B685B687A6892689A6046
:10304C007B689B687A6852685A60FB685A687B6830
:10305C009A4203D17B689A68FB685A607B680022AD
:10306C001A61FB681B685A1EFB681A60FB681B68B8
:10307C0018461437BD465DF8047B704780B485B0A4
:10308C0000AFF860B9607A60FB68043BFB60FB68DA
:10309C004FF080721A60FB68043BFB60BA68FB68F7
:1030AC001A60FB68043BFB60094AFB681A60FB680A
:1030BC00143BFB607A68FB681A60FB68203BFB6082
:1030CC00FB6818461437BD465DF8047B704700BF9B
:1030DC00E130000880B500AF00F072F8FEE700BFE9
:1030EC00074B19680868B0E8F00F80F30988BFF344
:1030FC006F8F4FF0000080F311884EF00D0E70476B
:10310C008448002005480068006880F3088862B68F
:10311C00BFF34F8FBFF36F8F00DF00BF08ED00E0F0
:10312C0080B500AF0B4A0B4B1B6843F47F03136055
:10313C00084A084B1B6843F07F43136000F084F887
:10314C00054B00221A60FFF7DDFFFFF7C3FF0023DA
:10315C00184680BD20ED00E00400002080B400AFD4
:10316C00054B4FF080521A60BFF34F8FBFF36F8F38
:10317C00BD465DF8047B704704ED00E080B500AF00
:10318C0000F01EF8044B1B680133034A1360BFF3B5
:10319C004F8FBFF36F8F80BD0400002080B500AF50
:1031AC00064B1B68013B054A1360044B1B68002B44
:1031BC0002D1002000F00EF880BD00BF04000020FA
:1031CC00EFF311804FF0BF0181F31188704700239A
:1031DC00184600BF80F31188704700BFEFF30980D9
:1031EC00BFF36F8F0D4B1A6820E9F00F10602DE9BB
:1031FC0008404FF0BF0080F3118800F0C1FD4FF084
:10320C00000080F31188BDE8084019680868B0E830
:10321C00F00F80F30988BFF36F8F7047844800204C
:10322C0080B500AFFFF7CCFF00F0F2FC0346002B9B
:10323C0003D0044B4FF080521A600020FFF7CAFFF6
:10324C0080BD00BF04ED00E080B400AF044B054A24
:10325C001A60054B07221A60BD465DF8047B704767
:10326C0014E000E03F19010010E000E080B584B0EC
:10327C0000AF786039607B68FB60FFF77FFFFB680D
:10328C001A68FB68DB6BF968096C01FB03F31A44E1
:10329C00FB685A60FB6800229A63FB681A68FB683B
:1032AC009A60FB681A68FB68DB6B013BF968096C78
:1032BC0001FB03F31A44FB68DA60FB684FF0FF3242
:1032CC005A64FB684FF0FF329A643B68002B0ED1B6
:1032DC00FB681B69002B14D0FB681033184600F0F8
:1032EC00CBFD0346012B0CD1FFF738FF09E0FB683F
:1032FC0010331846FFF710FEFB6824331846FFF70F
:10330C000BFEFFF74BFF012318461037BD4680BD5F
:10331C0080B588B000AFF860B9601346FB7100232C
:10332C00FB61FB68002B26D04C20FFF707FDB86132
:10333C00BB69002B1FD0FB68BA6802FB03F3013397
:10334C007B617869FFF7FAFC0246BB691A60BB69BE
:10335C001B68002B0CD0BB69FA68DA63BB69BA68CE
:10336C001A64B8690121FFF781FFBB69FB6102E0B8
:10337C00B869FFF771FDFB6918462037BD4680BD63
:10338C0080B584B000AF0346FB714C20FFF7D6FC30
:10339C00F860FB68002B2CD0FB6800225A60FB689D
:1033AC0000221A60FB6800229A60FB680022DA6037
:1033BC00FB6800229A63FB680122DA63FB68002237
:1033CC001A64FB684FF0FF325A64FB684FF0FF320F
:1033DC009A64FB6810331846FFF79EFDFB68243394
:1033EC001846FFF799FDF86800210022002300F031
:1033FC0005F8FB6818461037BD4680BD80B588B00F
:10340C0000AFF860B9607A603B600023FB61FB6839
:10341C00BB61FFF7B3FEBB699A6BBB69DB6B9A426E
:10342C0002D33B68022B16D1B869B9683A6800F030
:10343C006DF9BB695B6A002B09D0BB692433184654
:10344C0000F01AFD0346012B01D1FFF787FEFFF7B1
:10345C00A5FE012359E07B68002B03D1FFF79EFEEC
:10346C00002352E0FB69002B06D107F1100318462C
:10347C0000F058FD0123FB61FFF790FE00F03CFBD0
:10348C00FFF77CFEBB695B6CB3F1FF3F02D1BB69FC
:10349C0000225A64BB699B6CB3F1FF3F02D1BB693C
:1034AC0000229A64FFF77AFE07F110023B1D1046CA
:1034BC00194600F04DFD0346002B1ED1B86900F0F3
:1034CC0015FA0346002B12D0BB6903F110027B687E
:1034DC001046194600F0A0FCB86900F0A5F900F000
:1034EC0019FB0346002B0FD1FFF738FE0CE0B8692F
:1034FC0000F09AF900F00EFB8BE7B86900F094F934
:10350C0000F008FB002300E083E718462037BD4697
:10351C0080BD00BF80B588B000AFF860B9607A603C
:10352C003B60FB68BB61FFF74BFE7861BB699A6B34
:10353C00BB69DB6B9A4202D33B68022B24D1B8697E
:10354C00B9683A6800F0E2F8BB699B6CB3F1FF3FD5
:10355C0012D1BB695B6A002B13D0BB6924331846AC
:10356C0000F08AFC0346002B0BD07B68002B08D0A4
:10357C007B6801221A6004E0BB699B6C5A1CBB6916
:10358C009A640123FB6101E00023FB617869FFF77A
:10359C0021FEFB6918462037BD4680BD80B58AB038
:1035AC0000AFF860B9607A603B6000237B62FB6817
:1035BC003B62FFF7E3FD3B6A9B6B002B3BD03B6A06
:1035CC00DB68FB61386AB96800F008F93B68002BCE
:1035DC001CD13B6A9B6B5A1E3B6A9A633B6A1B6805
:1035EC00002B04D100F066FE02463B6A5A603B6A2F
:1035FC001B69002B1BD03B6A1033184600F03CFCB7
:10360C000346012B13D1FFF7A9FD10E03B6AFA69C1
:10361C00DA603B6A5B6A002B09D03B6A243318469C
:10362C0000F02AFC0346002B01D0FFF797FDFFF7B3
:10363C00B5FD012366E07B68002B03D1FFF7AEFDDF
:10364C0000235FE07B6A002B06D107F114031846B8
:10365C0000F068FC01237B62FFF7A0FD00F04CFA40
:10366C00FFF78CFD3B6A5B6CB3F1FF3F02D13B6A09
:10367C0000225A643B6A9B6CB3F1FF3F02D13B6A58
:10368C0000229A64FFF78AFD07F114023B1D1046D5
:10369C00194600F05DFC0346002B2BD1386A00F074
:1036AC000FF90346002B1FD03B6A1B68002B08D177
:1036BC00FFF764FD3B6A5B68184600F00BFEFFF7F2
:1036CC006DFD3B6A03F124027B681046194600F03D
:1036DC00A3FB386A00F0A8F800F01CFA0346002B94
:1036EC000FD1FFF73BFD0CE0386A00F09DF800F0BD
:1036FC0011FA5EE7386A00F097F800F00BFA002335
:10370C0000E056E718462837BD4680BD80B584B02A
:10371C0000AFF860B9607A60FB681B6C002B0CD1B1
:10372C00FB681B68002B51D1FB685B68184600F0E6
:10373C002FFEFB6800225A6048E07B68002B1AD1F0
:10374C00FB689A68FB681B6C1046B9681A46FDF753
:10375C00D9FEFB689A68FB681B6C1A44FB689A607C
:10376C00FB689A68FB685B689A422FD3FB681A68FF
:10377C00FB689A602AE0FB68DA68FB681B6C1046F1
:10378C00B9681A46FDF7BEFEFB68DA68FB681B6C6D
:10379C005B421A44FB68DA60FB68DA68FB681B68FA
:1037AC009A4207D2FB685A68FB681B6C5B421A444E
:1037BC00FB68DA607B68022B08D1FB689B6B002BE3
:1037CC0004D0FB689B6B5A1EFB689A63FB689B6B6F
:1037DC005A1CFB689A631037BD4680BD80B582B019
:1037EC0000AF786039607B681B68002B19D07B6850
:1037FC00DA687B681B6C1A447B68DA607B68DA6871
:10380C007B685B689A4203D37B681A687B68DA60D2
:10381C007B68DA687B681B6C386811461A46FDF7C2
:10382C0071FE0837BD4680BD80B582B000AF7860B0
:10383C00FFF7A4FC14E07B685B6A002B0AD07B6862
:10384C002433184600F018FB0346002B03D000F07D
:10385C00C3FB00E008E07B689B6C5A1E7B689A6493
:10386C007B689B6C002BE6DC7B684FF0FF329A6424
:10387C00FFF794FCFFF782FC14E07B681B69002BBC
:10388C000FD07B681033184600F0F6FA0346002B75
:10389C0001D000F0A1FB7B685B6C5A1E7B685A64FC
:1038AC0000E003E07B685B6C002BE6DC7B684FF090
:1038BC00FF325A64FFF772FC0837BD4680BD00BF6B
:1038CC0080B584B000AF7860FFF758FC7B689B6BC9
:1038DC00002B02D10123FB6001E00023FB60FFF70A
:1038EC005DFCFB6818461037BD4680BD80B584B0C2
:1038FC0000AF7860FFF742FC7B689A6B7B68DB6BF0
:10390C009A4202D10123FB6001E00023FB60FFF728
:10391C0045FCFB6818461037BD4680BD80B58AB0A3
:10392C0002AFF860B9603B601346FB80FB88184619
:10393C00396B00F063FCB861BB69002B66D0BB69C6
:10394C001A6BFB8803F18043013B9B0013447B61A2
:10395C007B6923F007037B61FB880093B869B96826
:10396C00BA6A7B6B00F054FB7869F9683A68FFF728
:10397C0085FB0246BB691A60FB6A002B02D0FB6A0E
:10398C00BA691A60FFF7FAFB2C4B1B6801332B4A00
:10399C0013602B4B1B68002B09D1294ABB691360A0
:1039AC00264B1B68012B0FD100F07AFB0CE0254B4A
:1039BC001B68002B08D1224B1B68DA6ABB6A9A423F
:1039CC0002D81F4ABB6913601F4B1B6801331E4A88
:1039DC001360BB69DA6A1D4B1B689A4203D9BB6939
:1039EC00DB6A1A4A1360BB69DA6A13469B001344FC
:1039FC009B00174A1A44BB69043310461946FFF75B
:103A0C00B7FA0123FB61FFF7C9FB02E04FF0FF336C
:103A1C00FB61FB69012B0BD10A4B1B68002B07D0F8
:103A2C00074B1B68DA6ABB6A9A4201D2FFF796FB16
:103A3C00FB6918462037BD4680BD00BF5C4900209D
:103A4C0084480020684900207849002064490020FF
:103A5C008848002080B584B000AF78600023FB60FC
:103A6C007B68002B12D000F047F80C4B1A687B686F
:103A7C001344BB600A4B1B6804331846FFF7D4FA97
:103A8C00B86800F085FB00F045F8F860FB68002B87
:103A9C0001D1FFF763FB1037BD4680BD60490020A4
:103AAC008448002080B586B004AF00230093002327
:103ABC00019300230293002303930B480B498022AC
:103ACC000023FFF72BFF78607B68012B09D1FFF7F0
:103ADC0077FB074B01221A60064B00221A60FFF796
:103AEC001FFB0837BD4680BDFD3F0008044F000892
:103AFC00684900206049002080B400AF044B1B686B
:103B0C000133034A1360BD465DF8047B704700BF68
:103B1C007C49002080B582B000AF00237B60FFF7AA
:103B2C002DFB334B1B68013B314A1360304B1B6838
:103B3C00002B56D12F4B1B68002B52D02FE02E4B55
:103B4C00DB68DB683B603B6818331846FFF76CFAA0
:103B5C003B6804331846FFF767FA3B68DA6A274B71
:103B6C001B689A4203D93B68DB6A244A13603B68A2
:103B7C00DA6A13469B0013449B00214A1A443B68A3
:103B8C00043310461946FFF7F3F93B68DA6A1D4B0C
:103B9C001B68DB6A9A4202D31B4B01221A60164B3C
:103BAC001B68002BCBD1194B1B68002B11D00CE0E0
:103BBC0000F02EF80346002B02D0134B01221A60A2
:103BCC00124B1B68013B114A1360104B1B68002BF6
:103BDC00EED10D4B1B68012B03D101237B60FFF74A
:103BEC00BDFAFFF7DBFA7B6818460837BD4680BD87
:103BFC007C4900205C4900201C49002064490020BD
:103C0C008848002084480020704900206C4900201E
:103C1C0080B586B000AF00237B614E4B1B68002B38
:103C2C0040F085804C4B1B6801334B4A13604A4B68
:103C3C001B683B613B69002B10D1484B1B68FB6038
:103C4C00474B1B68454A1360454AFB681360454B5C
:103C5C001B680133434A136000F008FB424B1B689E
:103C6C003A699A424ED33D4B1B681B68002B01D11D
:103C7C00012300E00023002B04D03B4B4FF0FF321C
:103C8C001A603FE0354B1B68DB68DB68BB60BB68C8
:103C9C005B687B603A697B689A4203D2324A7B68E4
:103CAC0013602FE0BB6804331846FFF7BDF9BB68FF
:103CBC009B6A002B04D0BB6818331846FFF7B4F985
:103CCC00BB68DA6A294B1B689A4203D9BB68DB6A6A
:103CDC00264A1360BB68DA6A13469B0013449B00A8
:103CEC00234A1A44BB68043310461946FFF740F9BF
:103CFC00BB68DA6A1F4B1B68DB6A9A4201D301234B
:103D0C007B61B0E71B4B1B68DA6A194913469B00B1
:103D1C0013449B000B441B68012B01D901237B61CD
:103D2C00154B1B68002B09D1FEF78CFF06E0124BDC
:103D3C001B680133104A1360FEF784FF0F4B1B689E
:103D4C00002B01D001237B617B6918461837BD46D7
:103D5C0080BD00BF7C490020604900201449002030
:103D6C0018490020744900200800002064490020F4
:103D7C0088480020844800206C49002070490020AD
:103D8C0080B483B000AF1F4B1B68002B03D01E4BBD
:103D9C0001221A6031E01C4B00221A6004E01B4B1C
:103DAC001B68013B194A1360184B1A6818491346D3
:103DBC009B0013449B000B441B68002BEFD0134B50
:103DCC001A6813469B0013449B00114A13447B60F2
:103DDC007B685B685A687B685A607B685A687B684A
:103DEC0008339A4204D17B685B685A687B685A60D6
:103DFC007B685B68DB68074A13600C37BD465DF86F
:103E0C00047B70477C4900207049002064490020E5
:103E1C00884800208448002080B584B000AF7860CA
:103E2C003960124B1B68183378681946FFF7C4F8D1
:103E3C000E4B1B6804331846FFF7F6F83B68B3F1DA
:103E4C00FF3F07D1094B1B68043309481946FFF79C
:103E5C008FF807E0074B1A683B681344FB60F8685F
:103E6C0000F096F91037BD4680BD00BF8448002095
:103E7C00484900206049002080B584B000AF7860CC
:103E8C007B68DB68DB68BB60BB6818331846FFF7E0
:103E9C00CBF81E4B1B68002B1DD1BB680433184696
:103EAC00FFF7C2F8BB68DA6A194B1B689A4203D950
:103EBC00BB68DB6A164A1360BB68DA6A13469B0060
:103ECC0013449B00134A1A44BB680433104619462A
:103EDC00FFF74EF805E0BB6818330F481946FFF79B
:103EEC0047F8BB68DA6A0D4B1B68DB6A9A4205D946
:103EFC000123FB600A4B01221A6001E00023FB60E6
:103F0C00FB6818461037BD4680BD00BF7C490020B9
:103F1C0064490020884800201C4900208448002067
:103F2C007049002080B483B000AF7860064B1A68EB
:103F3C007B681A60054B1A687B685A600C37BD4663
:103F4C005DF8047B704700BF744900206049002075
:103F5C0080B584B000AF78603960FFF70FF91C4B67
:103F6C001B68BB603B681B68B3F1FF3F02D10023A9
:103F7C00FB6026E07B681A68164B1B689A4207D0D8
:103F8C007B685A68BB689A4202D80123FB6018E030
:103F9C007B685B68BA68D21A3B681B689A420ED27F
:103FAC003B681A687B685968BB68CB1A1A443B6833
:103FBC001A607868FFF7B6FF0023FB6001E001236D
:103FCC00FB60FFF7EBF8FB6818461037BD4680BD69
:103FDC00604900207449002080B400AF034B0122DB
:103FEC001A60BD465DF8047B704700BF7049002025
:103FFC0080B582B000AF786000F090F8034B1B687E
:10400C00012B01D9FFF7AAF8F6E700BF884800207A
:10401C0080B586B000AFF860B9607A603B60002371
:10402C007B6113E0BA687B6913441978FA687B6981
:10403C00134430330A461A71BA687B6913441B78EF
:10404C00002B00D105E07B6901337B617B690F2B71
:10405C00E8D9FB68002283F843207B68042B01D944
:10406C0004237B60FB687A68DA62FB687A685A64BE
:10407C00FB6804331846FEF76FFFFB6818331846CD
:10408C00FEF76AFFFB68FA681A617B68C3F10502E8
:10409C00FB689A61FB68FA685A621837BD4680BDA6
:1040AC0080B582B000AF00237B600CE07A681346C9
:1040BC009B0013449B00114A13441846FEF72CFF37
:1040CC007B6801337B607B68042BEFD90C48FEF7CF
:1040DC0023FF0C48FEF720FF0B48FEF71DFF0B4893
:1040EC00FEF71AFF0A48FEF717FF0A4B044A1A603C
:1040FC00094B044A1A600837BD4680BD8848002029
:10410C00EC480020004900201C49002030490020C8
:10411C0048490020144900201849002080B582B07D
:10412C0000AF28E0FFF7E8FC164B1B68002B0CBF18
:10413C0001230023DBB27B60FFF7ECFC7B68002BD8
:10414C0019D1FFF71BF80F4BDB68DB683B603B6852
:10415C0004331846FEF768FF0B4B1B68013B0A4AF9
:10416C0013600A4B1B68013B084A1360FFF716F8F3
:10417C00386800F06BF8054B1B68002BD2D1083760
:10418C00BD4680BD304900205C49002044490020D8
:10419C0080B582B000AF7860134B1B687A685A60A8
:1041AC00124B1B687A689A4209D2114B1A680E4B53
:1041BC001B68043310461946FEF7FEFE10E00D4B4B
:1041CC001A68094B1B68043310461946FEF7F4FEB7
:1041DC00094B1B687A689A4202D2074A7B681360C3
:1041EC000837BD4680BD00BF8448002060490020D0
:1041FC0018490020144900200800002080B584B024
:10420C0000AF03463960FB804820FEF797FDF8604D
:10421C00FB68002B15D03B68002B06D1FB889B005C
:10422C001846FEF78BFD034600E03B68FA68136303
:10423C00FB681B6B002B04D1F868FEF70DFE002306
:10424C00FB60FB6818461037BD4680BD80B582B058
:10425C0000AF78607B681B6B1846FEF7FDFD786835
:10426C00FEF7FAFD0837BD4680BD00BF80B483B0B1
:10427C0000AF0E4B1B681B68002B01D1012300E023
:10428C000023002B04D00A4B4FF0FF321A6008E0D9
:10429C00064B1B68DB68DB687B607B685B68044AE9
:1042AC0013600C37BD465DF8047B70471449002041
:1042BC000800002080B483B000AF054B1B687B6006
:1042CC007B6818460C37BD465DF8047B704700BF11
:1042DC008448002080B584B000AF78607B68FB60B8
:1042EC007B68002B4AD0FB68DA6A264B1B68DB6ABA
:1042FC009A4243D2FB689B69002B06DB214B1B685F
:10430C00DB6AC3F10502FB689A61FB685969FB68BB
:10431C00DA6A13469B0013449B001B4A13449942D0
:10432C0001D1012300E00023002B22D0FB680433D1
:10433C001846FEF779FE134B1B68DA6AFB68DA62E3
:10434C00FB68DA6A114B1B689A4203D9FB68DB6A7B
:10435C000E4A1360FB68DA6A13469B0013449B00F9
:10436C00094A1A44FB68043310461946FEF700FE4E
:10437C0004E0044B1B68DA6AFB68DA621037BD464E
:10438C0080BD00BF8448002088480020644900207C
:10439C0080B584B000AF78607B68FB607B68002BD5
:1043AC0030D0FB68DA6AFB685B6C9A422AD0FB68F7
:1043BC0004331846FEF738FEFB685A6CFB68DA6269
:1043CC00FB689B69002B05DBFB68DB6AC3F105020C
:1043DC00FB689A61FB68DA6A0C4B1B689A4203D93A
:1043EC00FB68DB6A094A1360FB68DA6A13469B00B8
:1043FC0013449B00064A1A44FB68043310461946C2
:10440C00FEF7B6FD1037BD4680BD00BF64490020E5
:10441C008848002080B485B000AF786039600023F4
:10442C00FB600023FB727B685B68FB60FB6823F41A
:10443C00702323F48073FB603B681A683B681B791C
:10444C001B021343FA681343FB607B68FA685A60DB
:10445C007B689B68FB60FA68164B1340FB603B68FB
:10446C00DA683B689B681A433B685B795B001343D3
:10447C00FA681343FB607B68FA689A607B68DB6AB6
:10448C00FB60FB6823F47003FB603B681B7C013B07
:10449C00DAB2FB7A1343FB72FB7A1B05FA681343FF
:1044AC00FB607B68FA68DA621437BD465DF8047B02
:1044BC00704700BFFDF7F1FF80B483B000AF7860A8
:1044CC007B6800221A607B6800221A717B680022CC
:1044DC005A717B6800229A607B680022DA607B68E4
:1044EC0001221A740C37BD465DF8047B704700BF7F
:1044FC0080B483B000AF78600B46FB70FB78002B68
:10450C0006D07B689B6843F001027B689A6005E0EB
:10451C007B689B6823F001027B689A600C37BD4670
:10452C005DF8047B704700BF80B483B000AF786047
:10453C007B689B6843F008027B689A600C37BD4629
:10454C005DF8047B704700BF80B485B000AF786025
:10455C000023FB737B689B6803F00803002B02D0DD
:10456C000123FB7301E00023FB73FB7B184614371C
:10457C00BD465DF8047B704780B483B000AF7860B3
:10458C007B689B6843F004027B689A600C37BD46DD
:10459C005DF8047B704700BF80B485B000AF7860D5
:1045AC000023FB737B689B6803F00403002B02D091
:1045BC000123FB7301E00023FB73FB7B18461437CC
:1045CC00BD465DF8047B704780B485B000AF786061
:1045DC00084611461A460346FB700B46BB70134641
:1045EC007B700023FB600023BB60FB78092B23D975
:1045FC007B68DB68FB60FB78A3F10A0213465B0067
:10460C001344072202FA03F3BB60BB68DB43FA686E
:10461C001340FB607978FB78A3F10A0213465B0028
:10462C00134401FA03F3BB60FA68BB681343FB60E5
:10463C007B68FA68DA601EE07B681B69FB60FA78BD
:10464C0013465B001344072202FA03F3BB60BB68FA
:10465C00DB43FA681340FB607978FA7813465B0009
:10466C00134401FA03F3BB60FA68BB681343FB60A5
:10467C007B68FA681A61BB78062B21D87B685B6B68
:10468C00FB60BB785A1E13469B0013441F2202FA90
:10469C0003F3BB60BB68DB43FA681340FB60F9783B
:1046AC00BB785A1E13469B00134401FA03F3BB60FC
:1046BC00FA68BB681343FB607B68FA685A6347E08F
:1046CC00BB780C2B21D87B681B6BFB60BB78DA1F8B
:1046DC0013469B0013441F2202FA03F3BB60BB6812
:1046EC00DB43FA681340FB60F978BB78DA1F13469A
:1046FC009B00134401FA03F3BB60FA68BB681343D5
:10470C00FB607B68FA681A6322E07B68DB6AFB60FB
:10471C00BB78A3F10D0213469B0013441F2202FA2F
:10472C0003F3BB60BB68DB43FA681340FB60F978AA
:10473C00BB78A3F10D0213469B00134401FA03F35B
:10474C00BB60FA68BB681343FB607B68FA68DA628B
:10475C001437BD465DF8047B704700BF80B489B048
:10476C0000AF786039600023FB6100233B610023BC
:10477C00BB610023FB6000237B610023BB603B68B3
:10478C00DB7803F00F03FB613B68DB7803F010036D
:10479C00002B05D03B689B781A46FB691343FB61E1
:1047AC003B681B88DBB2002B44D07B681B687B61A9
:1047BC000023BB6138E0BB69012202FA03F3FB6002
:1047CC003B681B881A46FB6813403B613A69FB68DF
:1047DC009A4226D1BB699B00FB60FB680F2202FA50
:1047EC0003F3BB60BB68DB437A6913407B61FB68F6
:1047FC00FA6902FA03F37A6913437B613B68DB784D
:10480C00282B05D1BB6901229A407B685A6108E0CC
:10481C003B68DB78482B04D1BB6901229A407B684A
:10482C001A61BB690133BB61BB69072BC3D97B68B8
:10483C007A691A603B681B88FF2B4AD97B685B68D6
:10484C007B610023BB613EE0BB6908331A46012340
:10485C009340FB603B681B881A46FB6813403B6126
:10486C003A69FB689A422BD1BB699B00FB60FB68E1
:10487C000F2202FA03F3BB60BB68DB437A69134077
:10488C007B61FB68FA6902FA03F37A6913437B6173
:10489C003B68DB78282B07D1BB6908331A46012308
:1048AC0003FA02F27B685A613B68DB78482B07D12C
:1048BC00BB6908331A46012303FA02F27B681A61BA
:1048CC00BB690133BB61BB69072BBDD97B687A69B6
:1048DC005A602437BD465DF8047B704780B485B0C0
:1048EC0000AF78600B467B800023FB737B689A6873
:1048FC007B881340002B02D00123FB7301E00023C3
:10490C00FB73FB7B18461437BD465DF8047B704780
:10491C0080B483B000AF78600B467B807A887B686C
:10492C001A610C37BD465DF8047B704780B483B0C8
:10493C0000AF78600B467B807A887B685A610C37B5
:10494C00BD465DF8047B704780B483B000AF7860DF
:10495C000B46FB70FB78002B06D00949084B9A6973
:10496C007B6813438B6106E00549054B9A697B68AC
:10497C00DB4313408B610C37BD465DF8047B7047FD
:10498C000010024000210A2200F006B9931E222BCF
:10499C0010D80A2A10B506D000230C46194400F092
:1049AC0007F9204610BD0028F6DA2D230B70404283
:1049BC000123F2E700200870704700BFFFF7E6BF45
:1049CC0080EA0102844612F0030F4FD111F0030F5D
:1049DC0032D14DF8044D11F0040F51F8043B0BD0BB
:1049EC00A3F101329A4312F0803F04BF4CF8043B10
:1049FC0051F8043B16D100BF51F8044BA3F101321E
:104A0C009A4312F0803FA4F101320BD14CF8043BD5
:104A1C00A24312F0803F04BF51F8043B4CF8044B06
:104A2C00EAD023460CF8013B13F0FF0F4FEA332377
:104A3C00F8D15DF8044B704711F0010F06D011F856
:104A4C00012B0CF8012B002A08BF704711F0020F44
:104A5C00BFD031F8022B12F0FF0F16BF2CF8022B2F
:104A6C008CF8002012F47F4FB3D1704711F8012B52
:104A7C000CF8012B002AF9D1704700BF2DE9F04F3B
:104A8C00444C83460E46D4F800E000E026463446FB
:104A9C0014F8015B0EEB0500407800F0080000F004
:104AAC00FF080028F2D12D2D4BD02B2D04BF75788B
:104ABC00B41C1BB1102B60D09A4603E0302D54D09F
:104ACC000A239A46B8F1000F14BF4FF000406FF064
:104ADC000040B0FBFAF90027BC460AFB19000CE0B9
:104AEC00303DAB4219DD7E1C05D0CC4524D821D0FD
:104AFC000AFB0C5C012714F8015B0EEB05067678BB
:104B0C0016F0040FECD116F0030606D0012E0CBFE4
:104B1C0037265726AD1BAB42E5DC7B1C16D0C8F103
:104B2C0000008CEA000040444AB107B1611E1160DC
:104B3C00BDE8F08F8542DBDD4FF0FF37DBE7BDE8EA
:104B4C00F08FB41C75784FF00108B2E7B8F1000F84
:104B5C004FF0220314BF4FF000406FF00040CBF831
:104B6C000030002AE2D1BDE8F08F237803F0DF0398
:104B7C00582B09D008239A46A4E7302D9CD12078D5
:104B8C0000F0DF00582897D14FF0100A6578534693
:104B9C00023497E73C04002030B40D46034C134616
:104BAC0001462A46206830BCFFF768BF3804002055
:104BBC00F0B58BB06F461546DFF870E004460E4634
:104BCC00BEE80F000FC7BEE80F000FC79EE803003A
:104BDC00AB1E47F8040B222B397022D8711E0846E5
:104BEC00002300E01346B4FBF5F205FB12440AAFB8
:104BFC003C4414F8287C144600F8017F5A1C002C05
:104C0C00F0D1B454F2184BB1013411F8015F17789C
:104C1C00181B84420F7002F80159F5DB30460BB0BB
:104C2C00F0BD002030700BB0F0BD00BF1C4F000871
:104C3C00024B13B1024800F005B8704700000000A9
:104C4C005D4C0008014600200246034600F016B8F1
:104C5C0038B5084B084DED1AAC1018BFED1805D03F
:104C6C00013C55F8043D9847002CF9D1BDE838407B
:104C7C0000F0EAB970500008745000082DE9F047B4
:104C8C00254C064625688846D5F8484192469946F3
:104C9C00C4B360681F2817DC411C76B104EB800399
:104CAC00C3F888A0D4F88851012282401543022E03
:104CBC00C4F88851C3F808911ED0831C6160002091
:104CCC0044F82380BDE8F087144B03B34FF4C8704D
:104CDC00AFF300800446D0B1D5F84831002784E802
:104CEC0088003846C5F848410121C4F88871C4F8D9
:104CFC008C71002EE1D0D1E7D4F88C311A43C4F872
:104D0C008C21DAE705F5A674C5F84841C1E74FF0E8
:104D1C00FF30BDE8F08700BF184F0008000000000E
:104D2C0043616E2774207772697465205553415224
:104D3C0054205258206279746520746F2071756507
:104D4C007565000043616E2774206372656174653C
:104D5C0020557361727420636F6D6D616E64732086
:104D6C0071756575650A00005553415254205258AF
:104D7C002068616E646C657200000000436F6D6D9D
:104D8C00616E64732068616E646C65720000000073
:104D9C00765F646566000000765F6F757472656699
:104DAC0000000000765F6F7574000000765F6F7511
:104DBC00745F6C696D5F696E63000000737461727F
:104DCC00745F74696D656F7574000000746573743D
:104DDC005F706172616D000043616E2774207075A5
:104DEC007420436F6D6D616E6473207175657565AC
:104DFC00000000000A0D0000203D20005374617279
:104E0C0074207461736B73004C636453686F770028
:104E1C004672656552544F53212D76382E302E3103
:104E2C000A4C616D626461207A6F6E642076312E5B
:104E3C00300000004C4544310000000043686563BD
:104E4C006B5F62746E3100005553415254315F7484
:104E5C0072616E736D6974746572000043616E27C4
:104E6C00742063726561746520557361727420528D
:104E7C00582071756575650A000000004C616D6203
:104E8C006473207A6F6E6420760000000A0D0000B7
:104E9C00476F6F642064617920446D69747269791D
:104EAC0020536572676565766963682120506C656F
:104EBC00617365206D616B652073657475700A0D87
:104ECC000000000053657474696E6720766172731C
:104EDC002E2E2E0043757272656E74207061726195
:104EEC006D65746572733A0A0D00000020000000B5
:104EFC00414443200000000049444C4500000000A0
:104F0C00312E302E30000000430000001000002035
:104F1C003031323334353637383961626364656623
:104F2C006768696A6B6C6D6E6F707172737475768D
:104F3C007778797A000000000020202020202020A3
:104F4C00202028282828282020202020202020202D
:104F5C00202020202020202020881010101010103D
:104F6C001010101010101010100404040404040489
:104F7C000404041010101010101041414141414123
:104F8C000101010101010101010101010101010105
:104F9C000101010110101010101042424242424215
:104FAC0002020202020202020202020202020202D5
:104FBC00020202021010101020000000000000007D
:104FCC0000000000000000000000000000000000D5
:104FDC0000000000000000000000000000000000C5
:104FEC0000000000000000000000000000000000B5
:104FFC0000000000000000000000000000000000A5
:10500C000000000000000000000000000000000094
:10501C000000000000000000000000000000000084
:10502C000000000000000000000000000000000074
:10503C00000000000000000000000000F8B500BFF8
:10504C00F8BC08BC9E467047F8B500BFF8BC08BC5D
:04505C009E467047B5
:0850600094BFFF7F0100000076
:085068003D4C00083101000875
:045070000D01000826
:10507400F8430000AAAAAAAAFFFFFFFF000000004D
:1050840000000000FC02002064030020CC03002088
:10509400000000000000000000000000000000000C
:1050A40000000000000000000000000000000000FC
:1050B40000000000144F0008000000000000000081
:1050C40000000000000000000000000000000000DC
:1050D40000000000000000000000000000000000CC
:1050E40000000000000000000000000000000000BC
:1050F40000000000000000000000000000000000AC
:10510400000000000000000000000000000000009B
:10511400000000000000000000000000000000008B
:10512400000000000000000001000000000000007A
:105134000E33CDAB34126DE6ECDE05000B0000003F
:10514400000000000000000000000000000000005B
:10515400000000000000000000000000000000004B
:10516400000000000000000000000000000000003B
:10517400000000000000000000000000000000002B
:1054A400000000000000000010000020444F00082D
:04000005080015FDDD
:00000001FF
